:100000000C9497000C94BF000C94BF000C94BF009C
:100010000C94BF000C94BF000C94BF000C94980A81
:100020000C94BF000C94BF000C94BF000C94960B72
:100030000C94BF000C94BF000C94BF000C94BF0044
:100040000C944C0B0C94BF000C941A0B0C94F40AF7
:100050000C94BF000C94BF000C94BF000C94BF0024
:100060000C94BF000C94BF004F4B2C004552522CF7
:100070000000000000240027002A000000000025E6
:100080000028002B000000000023002600290002A9
:1000900052454144592C434F44494E4750415045E5
:1000A000524C41425F535041434500040404040450
:1000B0000404040202020202020303030303030115
:1000C00002040810204080010204081020010204EC
:1000D00008102044482C0000000008000201000025
:1000E000030407000000000000000041522C0044FF
:1000F000522C004F4B2C524553455400504F4E4705
:100100002C434F44494E4750415045524C41425F69
:100110005350414345004552522C434F4D4D414EA3
:10012000445F544F4F5F4C4F4E470000C30E1124A5
:100130001FBECFEFD8E0DEBFCDBF12E0A0E0B1E040
:10014000E6EDF7E302C005900D92AC34B107D9F7A4
:1001500024E0ACE4B2E001C01D92A635B207E1F79D
:1001600010E0C7E9D0E004C02197FE010E94AE1A5A
:10017000C639D107C9F70E94200F0C94E91B0C94D3
:1001800000008F929F92AF92BF92FF920F931F93A6
:10019000CF93DF93F0904B042BE02F1508F44CC065
:1001A00020914D0408E512E0021B110927FD13956B
:1001B000000F111F000F111F20914C04C8E8D0E060
:1001C000C21BD10927FDD395CC0FDD1FCC0FDD1F3E
:1001D0004E010D2E000CAA08BB089801012E000C40
:1001E000440B550B281939094A095B09DC010E94A7
:1001F000F01724EB30E040E050E00E94C617820E7A
:10020000931EA41EB51E8C169D062CF0E8018016C8
:1002100091060CF4E4012297CC0FDD1F2FB7F89460
:100220008F2D90E0FC01EE0FFF1FE80FF91FEA5D34
:10023000FB4FD283C1832FBFDF91CF911F910F91CD
:10024000FF90BF90AF909F908F900895AF92BF9214
:10025000CF92DF92EF92FF920F931F93CF93DF9392
:100260006C017B018B01040F151FEB015E01AE18C1
:10027000BF08C017D10759F06991D601ED91FC91E3
:100280000190F081E02DC6010995892B79F7C50110
:10029000DF91CF911F910F91FF90EF90DF90CF9062
:1002A000BF90AF900895FC01538D448D252F30E011
:1002B000842F90E0821B930B541710F0CF96089573
:1002C00001970895FC01918D828D981761F0A28DA0
:1002D000AE0FBF2FB11D5D968C91928D9F5F9F7366
:1002E000928F90E008958FEF9FEF0895FC01918D1C
:1002F000828D981731F0828DE80FF11D858D90E089
:1003000008958FEF9FEF0895FC01918D228D892F25
:1003100090E0805C9F4F821B91098F73992708950D
:1003200089E893E00E94840121E0892B09F420E010
:10033000822F089580E090E0892B29F00E9490019F
:1003400081110C9400000895FC01A48DA80FB92F11
:10035000B11DA35ABF4F2C91848D90E001968F73ED
:100360009927848FA689B7892C93A089B1898C910C
:10037000837080648C93938D848D981306C002885B
:10038000F389E02D80818F7D80830895EF92FF9225
:100390000F931F93CF93DF93EC0181E0888F9B8DA8
:1003A0008C8D98131AC0E889F989808185FF15C062
:1003B0009FB7F894EE89FF896083E889F989808185
:1003C0008370806480839FBF81E090E0DF91CF9154
:1003D0001F910F91FF90EF900895F62E0B8D10E076
:1003E0000F5F1F4F0F731127E02E8C8D8E110CC0E5
:1003F0000FB607FCFACFE889F989808185FFF5CF30
:10040000CE010E94A401F1CFEB8DEC0FFD2FF11D69
:10041000E35AFF4FF0829FB7F8940B8FEA89FB896C
:1004200080818062CFCF0F931F93CF93DF938C0196
:10043000D0E0C0E0F801EC0FFD1F6491662341F0AD
:1004400089E893E00E94C601892B11F02196F2CF32
:10045000CE01DF91CF911F910F910895682F89E808
:1004600093E00C94C601CF93DF93EC01888D882331
:10047000B9F0AA89BB89E889F9898C9185FD03C007
:10048000808186FD0DC00FB607FCF7CF8C9185FFEC
:10049000F2CF808185FFEDCFCE010E94A401E9CF8C
:1004A000DF91CF910895833081F028F4813099F065
:1004B0008230A9F008958730A9F08830C9F08430DF
:1004C000B1F4809180008F7D03C0809180008F7790
:1004D00080938000089584B58F7784BD089584B596
:1004E0008F7DFBCF8091B0008F778093B00008950F
:1004F0008091B0008F7DF9CFCF93DF93282F30E02C
:10050000F901E952FF4F8491F901E154FF4FD49171
:10051000F901E555FF4FC491CC23A1F081110E9450
:100520005302EC2FF0E0EE0FFF1FEB57FF4FA591AA
:10053000B491EC91ED2381E090E009F480E0DF914B
:10054000CF91089580E090E0FACF1F93CF93DF938F
:10055000282F30E0F901E952FF4F8491F901E1546D
:10056000FF4FD491F901E555FF4FC491CC23A9F079
:10057000162F81110E945302EC2FF0E0EE0FFF1FA7
:10058000E558FF4FA591B4918FB7F894EC911111F4
:1005900008C0D095DE23DC938FBFDF91CF911F91F0
:1005A0000895DE2BF8CF9091040189130BC0EFE87A
:1005B000F0E0E4919FEF90930401E13049F028F0DE
:1005C000E23061F060E00C94A50210926E00FACF68
:1005D00090916F009D7F90936F00F4CF9091700089
:1005E0009D7F9093700091E09093B0009091B10046
:1005F000987F94609093B1001092B300E3CFCF93B3
:10060000DF9390E0FC01E154FF4F249185559F4F0B
:10061000FC0184918823C9F090E0880F991FFC01A8
:10062000EF58FF4FA591B491FC01E558FF4FC591DC
:10063000D49161110DC09FB7F8948C9120958223BD
:100640008C938881282328839FBFDF91CF910895C1
:10065000623051F49FB7F8943C91822F80958323A8
:100660008C93E8812E2BEFCF8FB7F894EC912E2B43
:100670002C938FBFEACF3FB7F89480915F0290919F
:100680006002A0916102B091620226B5A89B05C0EC
:100690002F3F19F00196A11DB11D3FBFBA2FA92F01
:1006A000982F8827BC01CD01620F711D811D911DFE
:1006B00042E0660F771F881F991F4A95D1F708956A
:1006C0008F929F92AF92BF92CF92DF92EF92FF9262
:1006D0004B015C010E943B036B017C010E943B03C8
:1006E0006C197D098E099F09683E7340810591054B
:1006F000A8F321E0821A9108A108B10888EEC80E7B
:1007000083E0D81EE11CF11C81149104A104B10402
:1007100029F7FF90EF90DF90CF90BF90AF909F9020
:100720008F9008952FB7F89460915B0270915C02EE
:1007300080915D0290915E022FBF0895FC0183813C
:1007400094818230910538F0880F991F880F991F86
:1007500005970197F1F70895EF92FF920F931F937A
:10076000CF93DF93EC01062F18E061E088810E94AF
:10077000FF02CE010E949E03E02EF12C60E000FFFC
:1007800061E089810E94FF02CE010E949E0360E029
:1007900088810E94FF02CE010E949E03F594E79497
:1007A0000E2D115011F761E088810E94FF0260E078
:1007B00089810E94FF02CE010E949E0360E0888131
:1007C0000E94FF02CE010E949E0389810E947C024A
:1007D000182F811104C061E089810E94FF02CE01BF
:1007E0000E949E0361E088810E94FF02CE010E9468
:1007F0009E0381E0111101C080E0DF91CF911F9134
:100800000F91FF90EF900895CF93DF93EC0161E09B
:1008100089810E94FF02CE010E949E0360E08881D0
:100820000E94FF02CE010E949E0360E089810E9427
:10083000FF02CE01DF91CF910C949E03CF93DF9303
:10084000EC0161E089810E94FF02CE01DF91CF912E
:100850000C949E03EF92FF920F931F93CF93DF931D
:10086000EC017B010E941E0460E4CE010E94AC03F7
:10087000CE010E940404CE010E941E0460ECCE0151
:100880000E94AC03870184E0E80EF11CF80161913D
:100890008F01CE010E94AC030E151F05B9F7CE01E2
:1008A0000E940404CE010E941E046A816F70605889
:1008B000CE010E94AC03CE01DF91CF911F910F9129
:1008C000FF90EF900C940404CF93DF9300D000D0FE
:1008D000CDB7DEB719821A821B821C82BE016F5F00
:1008E0007F4F0E942A040F900F900F900F90DF917E
:1008F000CF9108950F931F93CF93DF93EC01162FA1
:10090000072F8981882339F08E819F8197FD03C04D
:1009100060E00E94FF021E830F838981882341F0DB
:1009200061E0812F0E94FF0260E0812F0E94A502FA
:10093000812F902FFC01E555FF4FE491F0E0EE0F81
:10094000FF1FE558FF4F259134913C8B2B8BFC0109
:10095000E154FF4FE491ED8BDF91CF911F910F9107
:100960000895CF92DF92EF92FF920F931F93CF9350
:10097000DF93CDB7DEB729970FB6F894DEBF0FBE71
:10098000CDBF8C01DC0119968D919C91892B09F4C6
:1009900073C00E943B03F801C784D088E188F288C5
:1009A0006C157D058E059F0520F46787708B818B04
:1009B000928BF801C784D088E188F2886C197D0990
:1009C0008E099F096C3271408105910510F3F894EE
:1009D000D80114968D919C9115979A8389831996C5
:1009E000ED91FC917F01BFEFEB1AFB0A80818987B3
:1009F000F80190810388F489E02DD80155968C91F7
:100A0000992309F448C09081982B9887908180950C
:100A100089238F838F818C8388E08B8358856F81B6
:100A200049853B812C8189819A81D701508347FD7B
:100A3000252F3A952083262F39F0441F00C000004F
:100A40006083000000C0F2CF38E04D916083000069
:100A5000019761F7D8015496FC93EE935397498719
:100A60003B832C839A83898378940E943B03F8010B
:100A70006787708B818B928B29960FB6F894DEBFB7
:100A80000FBECDBFDF91CF911F910F91FF90EF90DF
:100A9000DF90CF9008959081982B988790818095D2
:100AA00089238F838F818E8388E08D8358856F8122
:100AB00049853D812E8189819A81D701508347FDE7
:100AC000252F00C000C0208300C000C000C000C0AF
:100AD00000C060830000262F3A9541F0441F0000BB
:100AE00000C000C000C000C000C0E8CF38E04D9199
:100AF00000C0608300C0019709F7D8015496FC93A9
:100B0000EE93539749873D832E83ACCFCF93DF93EA
:100B1000EC018E819F8197FD0CC061E00E94FF0275
:100B200060E08E810E94A50281E08983DF91CF91F0
:100B30000895198280E0FACF4F925F926F927F9270
:100B40008F929F92AF92BF92CF92DF92EF92FF92DD
:100B5000CF9380917202811151C0C0911603CC23B2
:100B600009F44CC00E949203C0906A02D0906B02BC
:100B7000E0906C02F0906D026C157D058E059F056E
:100B8000E8F180914E0290E0FC0153E0EE0FFF1F70
:100B90005A95E1F7EB58FD4FE080F180C280D38099
:100BA00084809580A680B780019664E170E00E9401
:100BB0009A1A80934E02C150C0931603F092060118
:100BC000E092050161E08E2D0E94FF0280910401F8
:100BD000E81611F18F3F09F485C081E0809372021D
:100BE0000E949203860E971EA81EB91E80926E0266
:100BF00090926F02A0927002B0927102CF91FF901A
:100C0000EF90DF90CF90BF90AF909F908F907F90AC
:100C10006F905F904F900895EFE8F0E0C491C7FDAA
:100C2000DCCF61E08E2D0E94FF02CC2319F0C23090
:100C300009F05EC1F12CE12C60E072E18AE790E0FE
:100C4000A70196010E94C61729013A01DA01C901DC
:100C50000197A109B1098F3F9105A105B10509F0DF
:100C60000CF42AC160E472E48FE090E0A7019601E1
:100C70000E94C6172150310941095109C23009F0BB
:100C8000ABC082E02F3F31054105510509F00CF45E
:100C9000E4C060E970ED83E090E0A70196010E9456
:100CA000C617215031094109510983E02F3F310511
:100CB0004105510509F00CF4D0C068E478EE81E0FC
:100CC00090E0A70196010E94C61721503109410901
:100CD00051092F3F31054105510511F00CF0CCC0F1
:100CE00084E0BBC0E0920401EFE8F0E0C491CF3FA4
:100CF00009F473CFC13041F150F0C23009F446C05D
:100D0000C7FD6BCF61E08E2D0E94FF0290CF14BC17
:100D100015BC84B5826084BD85B5816085BDC70181
:100D20009927FC01E555FF4FE491F0E0EE0FFF1F1E
:100D3000E558FF4F25913491FC01E154FF4FE491B8
:100D4000E0935002C0E06DCF1092800010928100BD
:100D50008091810088608093810080918100816012
:100D600080938100C7019927FC01E555FF4FE4916D
:100D7000F0E0EE0FFF1FE558FF4F25913491FC0185
:100D8000E154FF4FE491E0934F024BCF1092B0003B
:100D90001092B1008091B00082608093B000809189
:100DA000B10081608093B100C7019927FC01E5552E
:100DB000FF4FE491F0E0EE0FFF1FE558FF4F259144
:100DC00034913093640220936302FC01E154FF4F9D
:100DD000E491E093650225CF2F3F31054105510590
:100DE00009F00CF483C068E478EE81E090E0A7019C
:100DF00096010E94C6172150310941095109CC239F
:100E000009F4E0C02F3F31054105510509F00CF40C
:100E100067CF62E17AE780E090E0A70196010E9447
:100E2000C6172150310941095109CC2309F4B3C037
:100E300086E02F3F31054105510579F070F09AE0C9
:100E400075946794579447949A95D1F7A3019201AA
:100E5000215031094109510987E09091B100987FF3
:100E6000892B8093B100C13009F46DC0C23009F400
:100E70007FC0C111B2CE28C064E274EF80E090E080
:100E8000A70196010E94C617215031094109510955
:100E900085E02F3F310541055105F9F2F0F262E19D
:100EA0007AE780E090E0A70196010E94C6172150E2
:100EB000310941095109BCCF9C0181E0C111CDCF5D
:100EC00095B5987F892B85BD27BD8FEF9FEFDC01FE
:100ED0008093550290935602A0935702B093580204
:100EE00080916E00826080936E0077CE82E0E6CFC4
:100EF000F12CE12C60E072E18AE790E0A701960115
:100F00000E94C617215031094109510991E021156C
:100F1000310581E0480751056CF068E478EE81E026
:100F200090E0A70196010E94C6172150310941099E
:100F3000510993E0C13009F096CF80918100887FFC
:100F4000892B8093810030938900209388008FEF54
:100F50009FEFDC018093510290935202A0935302C1
:100F6000B093540280916F00826080936F0035CE01
:100F70002093B3008FEF9FEFDC0180936602909384
:100F80006702A0936802B09369028091700082604A
:100F90008093700022CE84E02F3F3105410551053A
:100FA00009F008F48DCF8AE07594679457944794BC
:100FB0008A95D1F7A30192012150310941095109C4
:100FC00085E07ECF83E02F3F31054105510509F0D3
:100FD0000CF476CF1ECFCF93DF93C0910501D09153
:100FE0000601D7FD0BC08C2F0E94D30261E08C2F2D
:100FF0000E94FF0260E08C2F0E94A50210924E0218
:101000001092150310921603109272028FEF9FEF49
:10101000909306018093050110926E0210926F0268
:10102000109270021092710210926A0210926B027A
:1010300010926C0210926D02DF91CF910895FC0125
:1010400001900020E9F73197AF01481B590BBC0113
:1010500089E893E00C942601CF93DF930E9413025A
:10106000EC0185E391E00E941F088C0F9D1FDF912A
:10107000CF9108958F929F92AF92BF920F931F933B
:10108000CF93DF93CDB7DEB7A1970FB6F894DEBF4D
:101090000FBECDBF19A2423008F44AE08E010F5DA9
:1010A0001F4F842E912CB12CA12CA50194010E94DC
:1010B000A417E62FB901CA01EA30F4F4E05DD801C3
:1010C000EE938D01232B242B252B79F790E080E0E4
:1010D000109719F0CD010E941F08A1960FB6F89441
:1010E000DEBF0FBECDBFDF91CF911F910F91BF909B
:1010F000AF909F908F900895E95CE1CFCF93DF93FD
:101100000E941F08EC0185E391E00E941F088C0FEC
:101110009D1FDF91CF910895CF93DF93EC018CE673
:1011200090E00E941302CE01DF91CF910C947E08D3
:10113000CF93DF93EC0188E690E00E941302CE018A
:10114000DF91CF910C947E08CF92DF92EF92FF92C5
:10115000CF93DF936C01990FEE08FF08F7FE1DC0D7
:101160008DE20E942E02EC0166277727CB016C19D5
:101170007D098E099F094AE00E943A08C80FD91FCD
:1011800085E391E00E941F088C0F9D1FDF91CF9196
:10119000FF90EF90DF90CF9008954AE0C701B6012D
:1011A0000E943A08EC01ECCFCF92DF92EF92FF92CF
:1011B000CF93DF936C01990FEE08FF08F7FE17C07D
:1011C0008DE20E942E02EC0166277727CB016C1975
:1011D0007D098E099F094AE00E943A088C0F9D1FE5
:1011E000DF91CF91FF90EF90DF90CF9008954AE08C
:1011F000C701B601DF91CF91FF90EF90DF90CF90C4
:101200000C943A08FC014481558170E060E08185CE
:1012100092850C94D91BCF93DF93C0912603D09174
:101220002703209769F48FEF9FEF90930A01809333
:10123000090110924D0210924C02DF91CF91089556
:10124000CE010E940209CE010E94B10489859A85CF
:101250000E94501B8E819F8197FD03C060E00E9419
:10126000FF02CE010E94501B10922703109226030A
:10127000DACFAC01E0914B042E2F30E0F901EE0FF4
:10128000FF1FE20FF31FEA5DFB4F908196FF0FC037
:1012900020910B0130910C012417350741F49F7BFD
:1012A00090838FEF9FEF90930C0180930B018091BF
:1012B000260390912703892B49F080910901909191
:1012C0000A018417950711F40C940B090895EF9205
:1012D000FF920F931F93CF93DF93EC017B018985DE
:1012E0009A850E94501B9E858B85981701F184E09A
:1012F00090E08E9D80018F9D100D9E9D100D1124FC
:101300001D830C83C8010E94B41A9A8789870097AD
:1013100089F0A80170E060E00E94D91BFB82EA829C
:10132000DF91CF911F910F91FF90EF90089583E08F
:1013300090E0DFCF1D821C821B821A82F1CFEF92D8
:10134000FF920F931F93CF93DF9320912603309149
:101350002703232B79F02091090130910A012817E6
:10136000390741F420914C0230914D02261737077E
:1013700009F47BC0E0914B042E2F30E0F901EE0F11
:10138000FF1FE20FF31FEA5DFB4F208126FF0FC016
:1013900040910B0150910C014817590741F42F7BE4
:1013A00020832FEF3FEF30930C0120930B017B0143
:1013B0008C010E940B0986E190E00E94B41AEC01B6
:1013C000198218861A8619861F86188A198A1A8A17
:1013D00081E08E878B871C8692E09D878883B7018A
:1013E000CE010E946709B801CE010E947A04D09311
:1013F0002703C093260310930A0100930901F0927A
:101400004D02E0924C02CE010E948605688563334E
:1014100001F129853A856150B9F070E08FEF92E3D0
:101420000E94861AF9014C815D81CF01821B930BCA
:101430008417950760F44081469FC001479F900D37
:10144000112490833196EFCF70E060E0EBCF83E31F
:101450008887CE010E940209CE01DF91CF911F91B2
:101460000F91FF90EF900C94B104DF91CF911F91F9
:101470000F91FF90EF9008950F931F93CF93DF93F9
:10148000CDB7DEB766970FB6F894DEBF0FBECDBFFF
:101490008C011A8219861B861A86188A198A1A8A5A
:1014A0001B8A81E08F878C871D8692E09E878983C7
:1014B00066E070E0CE0101960E946709B801CE0196
:1014C00001960E947A04CE0101960E948605CE0103
:1014D00001960E940209CE0101960E94B1048A85FC
:1014E0009B850E94501B8F81988597FD03C060E00B
:1014F0000E94FF0266960FB6F894DEBF0FBECDBF06
:10150000DF91CF911F910F910895CF93DF93EC015D
:1015100064E471E090E080E00E945D17009721F0A4
:10152000DF91CF910C943617CE01DF91CF910895C2
:101530001F920F920FB60F9211242F933F934F9348
:101540005F936F937F938F939F93AF93BF93EF932B
:10155000FF938091660290916702A0916802B0911A
:101560006902892B8A2B8B2BD1F190916502E09136
:101570006302F091640280818927808380916602F2
:1015800090916702A0916802B0916902181619063D
:101590001A061B069CF48091660290916702A09146
:1015A0006802B09169020197A109B10980936602AE
:1015B00090936702A0936802B0936902FF91EF9144
:1015C000BF91AF919F918F917F916F915F914F915B
:1015D0003F912F910F900FBE0F901F901895809103
:1015E00004010E94D302EACF1F920F920FB60F920E
:1015F00011242F933F934F935F936F937F938F9318
:101600009F93AF93BF93EF93FF9389E893E00E947A
:10161000A401FF91EF91BF91AF919F918F917F9125
:101620006F915F914F913F912F910F900FBE0F904F
:101630001F9018951F920F920FB60F9211242F939F
:101640008F939F93EF93FF93E0919903F0919A0307
:101650008081E0919F03F091A00382FD1BC09081E7
:101660008091A2038F5F8F732091A303821741F0B3
:10167000E091A203F0E0E757FC4F958F8093A2031F
:10168000FF91EF919F918F912F910F900FBE0F902F
:101690001F9018958081F4CF1F920F920FB60F9272
:1016A00011242F933F938F939F93AF93BF93809178
:1016B0005B0290915C02A0915D02B0915E0230915C
:1016C0005A0223E0230F2D3758F50196A11DB11DB5
:1016D00020935A0280935B0290935C02A0935D0278
:1016E000B0935E0280915F0290916002A0916102CE
:1016F000B09162020196A11DB11D80935F0290938B
:101700006002A0936102B0936202BF91AF919F917A
:101710008F913F912F910F900FBE0F901F901895B2
:1017200026E8230F0296A11DB11DD2CF1F920F9262
:101730000FB60F9211242F933F934F935F936F93A4
:101740007F938F939F93AF93BF93CF93DF93EF9349
:10175000FF9380915902C0914A04D0E087FF24C0D2
:101760001092850010928400809159028F5F8093BF
:10177000590280915902082E000C990B8C179D0775
:1017800024F4809159028C30C4F1809184009091AE
:101790008500049680349C4908F47AC080918400C6
:1017A00090918500049676C080915902082E000C15
:1017B000990B8C179D07C4F6E09159028E2FEE0FFE
:1017C000990BFC01EE0FFF1FE80FF91FEA5DFB4FBD
:1017D000808186FFC9CFE09159028E2FEE0F990BC1
:1017E000FC01EE0FFF1FE80FF91FEA5DFB4F808140
:1017F00060E08F730E94A502B7CF209184003091E2
:101800008500E09159028E2FEE0F990BFC01EE0F2F
:10181000FF1FE80FF91FEA5DFB4F81819281820F64
:10182000931F9093890080938800E09159028E2F36
:10183000EE0F990BFC01EE0FFF1FE80FF91FEA5D99
:10184000FB4F808186FF11C0E09159028E2FEE0F71
:10185000990BFC01EE0FFF1FE80FF91FEA5DFB4F2C
:10186000808161E08F730E94A502FF91EF91DF916B
:10187000CF91BF91AF919F918F917F916F915F9128
:101880004F913F912F910F900FBE0F901F90189581
:1018900080E49CE990938900809388008FEF809387
:1018A0005902E3CFCF92DF92EF92FF92CF93DF9373
:1018B000DC011796CC911797D0E06111DC2F1896B8
:1018C0002C91189730E0220F331F2B573F4F50E0D9
:1018D00040E0F90185919491FC01F080BA0190E01B
:1018E00080E0EF2DEC23ED1310C04F5F5F4F1D968E
:1018F000CD90DD90ED90FC9050976C157D058E0598
:101900009F0538F36FEF7FEFCB01DF91CF91FF9011
:10191000EF90DF90CF9008958F929F92AF92BF92F9
:10192000CF92DF92EF92FF920F931F93CF93DF93AB
:10193000CDB7DEB7C054D1400FB6F894DEBF0FBEAE
:10194000CDBF8C010E949203F801C184D284E3844C
:10195000F4849B01AC012C193D094E095F09690112
:101960007A0130EDC31637E0D306E104F104A8F4A0
:101970008189C05CDE4F0FB6F894DEBF0FBECDBFCD
:10198000DF91CF911F910F91FF90EF90DF90CF905B
:10199000BF90AF909F908F900895618772878387E3
:1019A00094871482138212821182108262E08581F0
:1019B0000E94FF0261E070E080E090E00E9460031E
:1019C00061E0F80185810E94FF0260E0F8018581F5
:1019D0000E94A502F80186818551823028F58BE2AC
:1019E00091E10197F1F762E0F80185810E94FF0221
:1019F000F801828990E08230910538F0880F991FB4
:101A0000880F991F05970197F1F7F89460E0C801D6
:101A10000E94520C6F3F7F4F8F4F9F4F61F4F80130
:101A2000118A789480E0A5CF64E170E080E090E0D6
:101A30000E946003D8CF61E0C8010E94520C6F3F42
:101A40007F4F8F4F9F4F59F39E012F5F3F4F79017B
:101A50005E013FEBA31A3EEFB30A670160E0C801E5
:101A60000E94520CF601608371838283938361E04C
:101A7000C8010E94520CF6016483758386839783A4
:101A8000F8E0CF0ED11CCA14DB0441F7789430E0A3
:101A900020E0F70180809180A280B380448155814D
:101AA00066817781FFEF8F169F06AF06BF0631F084
:101AB0004F3F8FEF58076807780719F4F801118A2C
:101AC000B1CFF90183E0F595E7958A95E1F7E00F4D
:101AD000F11F8081880F84169506A606B706F0F0E0
:101AE00080832F5F3F4FF8E0EF0EF11C2832310565
:101AF00081F6F801448120818181280F3327331F2B
:101B00008281280F311D8381820F932F911D992788
:101B10004817190699F681E0818B2BCF8160E0CFC1
:101B20004F925F926F927F928F929F92AF92BF92ED
:101B3000CF92DF92EF92FF920F931F93CF936B019F
:101B40007C01742EAC019B010E94751A882399F0C8
:101B500088E391E0CF911F910F91FF90EF90DF907C
:101B6000CF90BF90AF909F908F907F906F905F903D
:101B70004F900C941F0846015701E894B7F82FEFD7
:101B80003FEF4FE75FE7C501B4010E94751A81116D
:101B90000DC02FEF3FEF4FE75FE7C501B4010E9493
:101BA000AB1818161CF48CE391E0D4CF2FEF3FEF65
:101BB0004FE75FE4C701B6010E94031A18161CF430
:101BC00080E491E0C7CF2FEF3FEF4FE75FECC70115
:101BD000B6010E94AB1887FDF3CF20E030E0A901E9
:101BE000C701B6010E94AB1810E000E087FF08C0F3
:101BF0008DE20E942E028C01F7FAF094F7F8F0942F
:101C0000C0E060E070E080E09FE37C1641F020E0FF
:101C100030E040E251E40E94B018CF5FF6CFA70158
:101C200096010E943F182B013C010E9422194B0192
:101C30005C014AE00E943A087C01E00EF11ECC23D0
:101C4000B1F1C501B4010E9451199B01AC01C3015E
:101C5000B2010E943E184B015C018EE20E942E02EE
:101C6000E80EF91EC15018F120E030E040E251E4E6
:101C7000C501B4010E94081A2B013C010E942219DF
:101C80004B01B12CA12C4AE0C501B4010E943A08D5
:101C9000E80EF91EC501B4010E9451199B01AC0167
:101CA000C301B2010E943E184B015C01DBCFC701AA
:101CB000CF911F910F91FF90EF90DF90CF90BF9049
:101CC000AF909F908F907F906F905F904F9008950E
:101CD000EF92FF920F931F93CF93DF938C017B01C1
:101CE000C0912403D09125032097A1F08091020197
:101CF000909103018017910739F480910001909130
:101D0000010186179707C1F1CE010E946404CE013C
:101D10000E94501B85E090E00E94B41AEC010883F9
:101D2000E98284E690E09C838B8360E0802F0E94B0
:101D3000FF0260E089810E94FF0260E088810E94CA
:101D4000A50260E089810E94A502D0932503C0937B
:101D500024031093030100930201F0920101E09229
:101D600000018FE08A83CE01DF91CF911F910F9107
:101D7000FF90EF900C946404DF91CF911F910F912D
:101D8000FF90EF90089510928C0310928B0388EED1
:101D900093E0A0E0B0E080938D0390938E03A09336
:101DA0008F03B093900387E291E090938A0380932E
:101DB000890385EC90E0909396038093950384ECDF
:101DC00090E0909398038093970380EC90E0909339
:101DD0009A038093990381EC90E090939C03809305
:101DE0009B0382EC90E090939E0380939D0386EC8E
:101DF00090E09093A00380939F031092A20310920F
:101E0000A3031092A4031092A50380914A048C307E
:101E100098F491E0980F90934A0480934B0490E0DB
:101E2000FC01EE0FFF1FE80FF91FEA5DFB4F88EB87
:101E30009BE09283818308958FEF80934B040895F4
:101E4000CF93DF9300D000D000D0CDB7DEB7789429
:101E500084B5826084BD84B5816084BD85B58260AF
:101E600085BD85B5816085BD80916E008160809360
:101E70006E001092810080918100826080938100C9
:101E800080918100816080938100809180008160D9
:101E9000809380008091B10084608093B100809134
:101EA000B00081608093B00080917A00846080935C
:101EB0007A0080917A00826080937A0080917A0023
:101EC000816080937A0080917A00806880937A00A4
:101ED0001092C100E0919903F0919A0382E080830F
:101EE000E0919503F09196031082E0919703F091B1
:101EF00098038FEC80831092A103E0919D03F091F1
:101F00009E0386E08083E0919B03F0919C03808197
:101F100080618083E0919B03F0919C0380818860C5
:101F20008083E0919B03F0919C0380818068808393
:101F3000E0919B03F0919C0380818F7D80831092C0
:101F4000280312E061E0812F0E94FF0260E0812FF0
:101F50000E94A5021F5F1E30A9F780E990E00E9451
:101F60002C089E012F5F3F4F3E832D83809172028C
:101F7000882391F10E94920300916E0210916F02EA
:101F800020917002309171026017710782079307E8
:101F900018F110910501812F0E94D30261E0812F79
:101FA0000E94FF0260E0812F0E94A502109272023F
:101FB0008FEF9FEF90930601809305010E9492039B
:101FC000625E7F4F8F4F9F4F60936A0270936B02E8
:101FD00080936C0290936D020E949C05E0E42E2E8B
:101FE00089E893E00E948401181619060CF046C691
:101FF00089E893E00E9462018D3091F3E0918803BB
:102000008A3009F027C6EE2359F3F0E0E85DFC4F73
:10201000108264E471E088E293E00E945D178C0115
:10202000009751F066E471E00E94E01B892B49F4AF
:102030008CEF90E00E942C081092880310922803E5
:10204000CFCF6BE471E0C8010E94E01B892B09F03F
:1020500080C00E94EB0712E0812F0E94D3021F5F15
:102060001E30D1F78091240390912503009711F041
:102070000E94640412E061E0812F0E94FF0260E090
:10208000812F0E94A5021F5F1E30A9F760E084E047
:102090000E94A50260E083E00E94A50260E082E069
:1020A0000E94A5020E940B0986E090E00E943C0A73
:1020B00089E090E00E943C0AE0914B048E2F90E072
:1020C000FC01EE0FFF1FE80FF91FEA5DFB4F808157
:1020D00086FF18C090E080E00E94C1006CE271E0D1
:1020E00080E090E00E946003E0914B048E2F90E02E
:1020F000FC01EE0FFF1FE80FF91FEA5DFB4F808127
:102100008F7B80838FEF9FEF90930C0180930B0167
:102110001092230310921F031092200310922103A8
:102120001092220310921B0310921C0310921D03A5
:1021300010921E03109217031092180310921903A5
:1021400010921A03109288031092280383EF90E0F4
:1021500071CF61E571E0C8010E94E01B892B71F528
:102160008FEF9FEF0E94850A8C0190E080E00E9433
:10217000850A7C01C80102970C9728F084E591E05C
:102180000E948C0859CFC8010E94390962E0EA9484
:10219000EF2809F060E0802F0E94FF028FEE90E0B0
:1021A0000E941302C8010E94D4088CE20E942E02F1
:1021B000802F0E947C020E94A4083ECF68E671E056
:1021C000C8010E94E01B892B29F58FEF9FEF0E9429
:1021D000850A8C018BE691E00630110588F68BEEBE
:1021E00090E00E941302C8010E94D4088CE20E9471
:1021F0002E02006400937C0080917A0080648093BA
:102200007A0080917A0086FDFCCF809178009091D1
:102210007900D1CF6EE771E0C8010E94E01B892BE5
:1022200011F58FEF9FEF0E94850A8C0190E080E00E
:102230000E94850A7C01C80102970C9708F09ECF86
:10224000C8010E94390961E0802F0E94FF0261E00D
:10225000EF2809F460E0802F0E94A5028EE791E04C
:102260000E949808E9CE61E871E0C8010E94E01B75
:10227000892B09F078C08FEF9FEF0E94850A8C01AF
:1022800090E080E00E94850A7C010330110559F03E
:10229000C80105978230910530F00497039718F034
:1022A00084E891E06DCFC8010E94390961E0802F78
:1022B0000E94FF0261E0802F0E94FF021E141F0493
:1022C0002CF060E0802F0E94A5022BC04FEFE41697
:1022D000F10414F061E0F6CFF801FF27E952FF4F57
:1022E000E491E33031F148F4E130B9F0E230E1F06B
:1022F00050E8E516F10474F7E4CFE73021F1E83057
:1023000051F1E430A9F780918000806280938000D1
:10231000F0928B00E0928A0004C084B5806884BD8E
:10232000E7BC81E891E09CCF84B5806284BDE8BCC5
:10233000F8CF80918000806880938000F0928900BF
:10234000E0928800EECF8091B00080688093B0006A
:10235000E092B300E6CF8091B00080628093B0003D
:10236000E092B400DECF64E971E0C8010E94E01B96
:10237000892B09F0AAC08FEF9FEF0E94850A7C018C
:102380008AE590E00E94850A9701225031092C309D
:10239000310518F087E991E0F3CE8C01853B91057A
:1023A00014F004EB10E017FF02C010E000E0E09131
:1023B0004B048E2F90E0FC01EE0FFF1FE80FF91F7A
:1023C000EA5DFB4F808186FB992790F920910B01F4
:1023D00030910C01E216F30641F4992351F0C80143
:1023E0000E94C10084E991E03BCF992311F08F7BDB
:1023F00080838091260390912703892B49F0809157
:10240000090190910A01E816F90611F40E940B09DE
:1024100080914B048C3008F053C061E08E2D0E94F7
:10242000FF0280914B04282F30E0F901EE0FFF1FCF
:10243000E20FF31FEA5DFB4F9081907C2E2D2F73EE
:10244000922B908310924C0410924D042CE0622F3A
:102450000E947A1A829FB001112430E020E0AB0183
:10246000420F531FFA01EE0FFF1FE40FF51FEA5D45
:10247000FB4F908196FD16C02F5F3F4F2C303105EA
:1024800071F781110FC01092800082E0809381006B
:102490001092850010928400B19A80916F00826042
:1024A00080936F00E0914B048E2F90E0FC01EE0FC3
:1024B000FF1FE80FF91FEA5DFB4F80818064808376
:1024C000F0920C01E0920B018ACF69EA71E0C80139
:1024D0000E94E01B892B09F063C08FEF9FEF0E94E1
:1024E000850A7C0190E080E00E94850A8C0164E40A
:1024F00071E090E080E00E945D17009779F04AE07B
:1025000050E070E060E00E944B16970122503109C4
:102510002C30310540F08CEA91E032CE60E070E082
:1025200080E090E0F2CF101611061CF08FEB91E0E6
:1025300027CE40911603443180F52091150330E0F9
:10254000F901A3E0EE0FFF1FAA95E1F7EB58FD4F4D
:10255000F182E082138302836B017C0184E1C8165F
:10256000D104E104F10428F454E1C52ED12CE12C6E
:10257000F12CC482D582E682F782C901019664E11A
:1025800070E00E949A1A809315034F5F40931603E0
:102590000E949C0589EA91E063CE81ED91E0F0CD47
:1025A00061EE71E0C8010E94E01B892BC9F48FEF36
:1025B0009FEF0E94850A8C0102970C9708F0ABCF21
:1025C0000E94EB07802F0E94D30261E0802F0E94BF
:1025D000FF0260E0802F0E94A50281EE91E040CED4
:1025E00064EE71E0C8010E94E01B7C01892B09F0B8
:1025F000C5C08FEF9FEF0E94850A6C0181E090E0DB
:102600000E94850A2C0190E080E00E94850A3C012E
:1026100090E080E00E94850A4C0190E080E00E94FA
:10262000850A5C01C60102970C9718F087EE91E0CD
:10263000A7CD82010D33110514F00CE310E0101644
:10264000110614F001E010E0B801C6010E949F09D4
:10265000A3014F3F510519F014F04FEF50E057FF21
:1026600002C050E040E0052E000C660B770BBA016B
:1026700055274427C4018F3F910519F014F08FEFBF
:1026800090E097FF02C090E080E0092E000CAA0BBA
:10269000BB0BBA2FA92F982F8827842B952BA62BFD
:1026A000B72B95012F3F310519F014F02FEF30E0D3
:1026B00037FF02C030E020E04901330FAA08BB0811
:1026C000AC01BD01482959296A297B29E0912603DB
:1026D000F0912703CB01AA27BB27882ED52E3C01DA
:1026E000942E82819381E816F90680F5C92C8085A5
:1026F000BD2CA82C882371F0869D9001879D300DFC
:102700001124A32E8D9D90011124B32E849FC0010E
:102710001124C92EA685818592852385A21322C006
:102720009701220F331F2E0D3F1D820F931FA3858C
:10273000A80FB92FB11DAC92A485A80FB92FB11D58
:10274000BC922585820F911DDC01CC92BFEFEB1A64
:10275000FB0AE016F1062CF2CF010E94B10484EED0
:1027600091E07ECD9701220F331F220F331F820F7E
:10277000931FA80FB92FB11D1C92D9CF6CEF71E038
:10278000C8010E94E01B892B51F58FEF9FEF0E943B
:10279000850A8C0181E090E00E94850A9801225010
:1027A00031092C30310508F041CFBC01CD9714F030
:1027B0006CE370E01616170614F061E070E0C801D3
:1027C0000E949F090091260310912703C8010E94CF
:1027D0000209C8010E94B1048CEF91E041CD6FEF76
:1027E00071E0C8010E94E01B892B09F05AC08FEFED
:1027F0009FEF0E94850A8C018FEF9FEF0E94850A50
:102800007C0190E080E00E94850A6C01C80102977B
:102810000C9718F082E092E0B3CCC70102970C97B6
:10282000C8F70E151F05B1F3B701C8010E94680E65
:10283000E0912403F09125039601D7FE03C0319562
:1028400021953109DD1CDD24DD1C8E010B5F1F4F3E
:10285000C9016AE070E00E94861ADC01AD5EBE4FDD
:102860004C91D8014E938D01892B39F421153105F6
:1028700021F4DD2011F02C92D12CC9016AE070E026
:102880000E94861A9B014D815E814017510701F716
:10289000BE016F5F7F4FCF010E942A048FEF91E04E
:1028A000DFCC66E172E0C8010E94E01B892B41F594
:1028B0008FEF9FEF0E94850A8C018FEF9FEF0E94A0
:1028C000850A9801225031092C30310508F0A2CF39
:1028D0009C01225031092C30310508F09BCF08179C
:1028E000190709F497CFBC01C8010E94680E8091B6
:1028F0002403909125030E94640486E192E0B0CC09
:1029000069E172E0C8010E94E01B892B09F09FC1B8
:102910008FEF9FEF0E94850A7C0102970C9718F0B9
:102920008CE192E02DCC809173029091740200971B
:1029300051F02091070130910801E216F30609F4E5
:102940004DC00E94501B8E2D0E94D30283E190E067
:102950000E94B41A8C01DC011596EC9215978BE05D
:1029600016968C931697F701E154FF4FE491179652
:10297000EC931797F701E555FF4FE4911896EC9308
:10298000189720E83EE340E050E01D962D933D93DC
:102990004D935C9350971093740200937302F092DE
:1029A0000801E092070162E08E2D0E94FF020E9462
:1029B0009203605D774081099109F8016187728710
:1029C0008387948787E3828B10921F0310922003E2
:1029D0001092210310922203109223030E9492036B
:1029E0002B013C01809123038823B1F080911F03C8
:1029F00090912003A0912103B0912203A3019201A1
:102A0000281B390B4A0B5B0BDA01C901803D97404B
:102A1000A105B10508F4F9C0009173021091740288
:102A2000C8010E948C0C882351F0D80116968C9115
:102A30008B3028F08D3050F085518230D0F1812CD0
:102A4000912C20ECA22E2FE7B22E1EC0F80161813E
:102A500070E090E080E00E9453192DEC3CEC4CECCF
:102A60005DE30E94081A6B017C01D8016C9170E053
:102A700090E080E00E9453199B01AC01C701B601B0
:102A80000E943F184B015C01C8010E948C0C8823F6
:102A900049F0D80116968C918C3009F490C0D0F48E
:102AA0008B3081F1C12CD12C80ECE82E8FE7F82EF1
:102AB00054C0F8016081718176276727762790E0FE
:102AC00080E00E9451192DEC3CEC4CEC5DE30E943F
:102AD000081AD8CF8551823028F7F8013280632D4B
:102AE00070E0762F662766277F778381682B90E0DA
:102AF00080E00E9451192DEC3CEC4CEC5DE30E940F
:102B0000081A7AC0F801628170E090E080E00E94CB
:102B100051196B017C01D80113961C9117FF0AC053
:102B2000AC019B0160E070E080E89FEB0E943E18E2
:102B30006B017C011F70612F70E090E080E00E94CB
:102B400053192DEC3CEC4CEC5DE30E94081AA701F4
:102B500096010E943F186B017C0140921F03509226
:102B600020036092210370922203A7019601C701FE
:102B7000B6010E94751A81111BC0A5019401C501FF
:102B8000B4010E94751A811113C0C0921B03D09228
:102B90001C03E0921D03F0921E0380921703909293
:102BA0001803A0921903B0921A0381E080932303C3
:102BB00080912303811129C08CE292E0E1CAF801DF
:102BC0003280632D70E090E080E00E9451196B012B
:102BD0007C01D80113966C916F7070E090E080E0FA
:102BE0000E9453192DEC3CEC4CEC5DE30E94081A5A
:102BF000A70196010E943F186B017C0137FEADCF03
:102C0000F7FAF094F7F8F094A8CF83ED90E00E94E3
:102C1000130260911B0370911C0380911D0390911E
:102C20001E0341E00E94900D8CE20E942E026091F2
:102C30001703709118038091190390911A0341E0D2
:102C40000E94900D85E391E00E941F08F5C98CE376
:102C500092E096CAEF3548F491E09E0F9093880376
:102C6000F0E0E85DFC4F8083BBC9109288031092AE
:102C7000280386E191E00E942C08B2C980E090E030
:102C8000892B09F473C90E949001882309F46EC945
:102C90000E9400006BC9B0E0A0E0E1E5F6E10C9411
:102CA000F9175C016B017A016115710519F0FB01DF
:102CB00091838083E114F10449F0C701029783975F
:102CC00028F060E070E0CB019CC05E01E501219638
:102CD000F5011081812F90E00E945417892BA9F7EC
:102CE0001D3209F056C02196F501118101E0E11471
:102CF000F10409F4AEC0F0E1EF16F10409F08EC062
:102D0000103341F488818F7D883509F083C01981A3
:102D100022960260E0E1EE2EF12C88248A94982C11
:102D2000A82CFFE0BF2E20E060E070E0CB0127017F
:102D30000F2C000C66087708FE0150ED352E310E81
:102D400039E0331538F43FEB310F3A31A0F549EC57
:102D5000342E310E3E141F04BCF52F3FB9F08616F9
:102D60009706A806B90670F1A30192010E94941774
:102D7000232D30E050E040E0620F731F841F951F49
:102D80006217730784079507E8F021E02196108108
:102D9000D3CF1B3221F4E5012296F501118100E029
:102DA000A6CF78E0E72EF12C88248A94982CA82CC2
:102DB0006FE1B62EB8CF3FE9310F3A3128F439EA46
:102DC000332EC7CF2FEFE2CFC114D10431F022232D
:102DD000E9F02197F601D183C08300FF07C09095E9
:102DE0008095709561957F4F8F4F9F4F2F3F49F48E
:102DF00082E290E090935104809350046FEF7FEF54
:102E0000CB01CDB7DEB7E1E10C94151801FFE5CF9A
:102E10002297E0CF10E3E114F10419F23AE0E3164F
:102E2000F104E9F080E1E816F10409F473CFE8E079
:102E3000EE16F10409F4B8CF6FEF7FEFCB019701E5
:102E40000F2C000C440B550B0E94A41749015A018A
:102E50006ACF103309F456CF9AE0E92EF12C89E9B4
:102E6000882E982CA82C89E1B82E5DCFFC018827EC
:102E70009927E89421912032E9F3293010F02E307F
:102E8000C8F32B3241F02D3239F4689404C00E940B
:102E90008917820F911D219120532A30C0F31EF40F
:102EA000909581959F4F089591110C9491178032C0
:102EB00019F089508550C8F708954EE454E00E94F7
:102EC00062170895FA01A191B081009719F4109743
:102ED000E1F0CD01DC01CD010D90002011F4C00125
:102EE00013C0FB012191222319F02015D9F7F3CF4C
:102EF000FB012191201519F41E92119606C0222380
:102F0000C1F70D900020A1F7D001FA01A193B08381
:102F100008957AE0979F902D879F802D910D112421
:102F20000895992788270895DB018F939F930E9426
:102F3000E517BF91AF91A29F800D911DA39F900DAA
:102F4000B29F900D11240895A1E21A2EAA1BBB1B5B
:102F5000FD010DC0AA1FBB1FEE1FFF1FA217B30765
:102F6000E407F50720F0A21BB30BE40BF50B661F7B
:102F7000771F881F991F1A9469F76095709580953F
:102F800090959B01AC01BD01CF010895052E97FBE3
:102F90001EF400940E94DD1757FD07D00E94A4176D
:102FA00007FC03D04EF40C94DD17509540953095F6
:102FB00021953F4F4F4F5F4F0895909580957095A5
:102FC00061957F4F8F4F9F4F08950E942F18A59FA7
:102FD000900DB49F900DA49F800D911D1124089514
:102FE000B7FF0C94E5170E94E517821B930B089519
:102FF0002F923F924F925F926F927F928F929F9209
:10300000AF92BF92CF92DF92EF92FF920F931F93F6
:10301000CF93DF93CDB7DEB7CA1BDB0B0FB6F894A7
:10302000DEBF0FBECDBF09942A88398848885F84E7
:103030006E847D848C849B84AA84B984C884DF8058
:10304000EE80FD800C811B81AA81B981CE0FD11D3C
:103050000FB6F894DEBF0FBECDBFED010895A29F5D
:10306000B001B39FC001A39F700D811D1124911D5C
:10307000B29F700D811D1124911D08955058BB27DA
:10308000AA270E9456180C94C9190E94BB1938F03F
:103090000E94C21920F039F49F3F19F426F40C94D1
:1030A000B8190EF4E095E7FB0C94B219E92F0E94D1
:1030B000DA1958F3BA17620773078407950720F0E7
:1030C00079F4A6F50C94FC190EF4E0950B2EBA2FAA
:1030D000A02D0B01B90190010C01CA01A00111241E
:1030E000FF27591B99F0593F50F4503E68F11A16CA
:1030F000F040A22F232F342F4427585FF3CF46955B
:1031000037952795A795F0405395C9F77EF41F167C
:10311000BA0B620B730B840BBAF09150A1F0FF0F46
:10312000BB1F661F771F881FC2F70EC0BA0F621F32
:10313000731F841F48F4879577956795B795F79522
:103140009E3F08F0B0CF9395880F08F09927EE0FB7
:103150009795879508950E948E1908F481E0089547
:103160000E94C4180C94C9190E94C21958F00E94F8
:10317000BB1940F029F45F3F29F00C94B2195111AA
:103180000C94FD190C94B8190E94DA1968F399236C
:10319000B1F3552391F3951B550BBB27AA27621753
:1031A0007307840738F09F5F5F4F220F331F441F60
:1031B000AA1FA9F335D00E2E3AF0E0E832D0915094
:1031C0005040E695001CCAF72BD0FE2F29D0660F81
:1031D000771F881FBB1F261737074807AB07B0E8C4
:1031E00009F0BB0B802DBF01FF2793585F4F3AF0CA
:1031F0009E3F510578F00C94B2190C94FD195F3F75
:10320000E4F3983ED4F3869577956795B795F7954F
:103210009F5FC9F7880F911D9695879597F9089537
:10322000E1E0660F771F881FBB1F621773078407D3
:10323000BA0720F0621B730B840BBA0BEE1F88F7E2
:10324000E09508950E94E21988F09F5798F0B92FF1
:103250009927B751B0F0E1F0660F771F881F991FCB
:103260001AF0BA95C9F714C0B13091F00E94FC1958
:10327000B1E008950C94FC19672F782F8827B85F68
:1032800039F0B93FCCF3869577956795B395D9F723
:103290003EF490958095709561957F4F8F4F9F4F2D
:1032A0000895E89409C097FB3EF490958095709539
:1032B00061957F4F8F4F9F4F9923A9F0F92F96E982
:1032C000BB279395F695879577956795B795F111F7
:1032D000F8CFFAF4BB0F11F460FF1BC06F5F7F4F94
:1032E0008F4F9F4F16C0882311F096E911C07723A6
:1032F00021F09EE8872F762F05C0662371F096E8AF
:10330000862F70E060E02AF09A95660F771F881F7D
:10331000DAF7880F9695879597F90895990F000821
:10332000550FAA0BE0E8FEEF16161706E807F90797
:10333000C0F012161306E407F50798F0621B730B32
:10334000840B950B39F40A2661F0232B242B252BB3
:1033500021F408950A2609F4A140A6958FEF811D56
:10336000811D089597F99F6780E870E060E00895F7
:103370009FEF80EC089500240A941616170618068D
:103380000906089500240A94121613061406050669
:103390000895092E0394000C11F4882352F0BB0FFA
:1033A00040F4BF2B11F460FF04C06F5F7F4F8F4F5D
:1033B0009F4F089557FD9058440F551F59F05F3F98
:1033C00071F04795880F97FB991F61F09F3F79F047
:1033D00087950895121613061406551FF2CF4695C9
:1033E000F1DF08C0161617061806991FF1CF86954B
:1033F0007105610508940895E894BB27662777272F
:10340000CB0197F908950E948E1908F48FEF089563
:103410000E941B1A0C94C9190E94BB1938F00E9413
:10342000C21920F0952311F00C94B2190C94B8191C
:1034300011240C94FD190E94DA1970F3959FC1F3C1
:10344000950F50E0551F629FF001729FBB27F00D52
:10345000B11D639FAA27F00DB11DAA1F649F6627A7
:10346000B00DA11D661F829F2227B00DA11D621FF6
:10347000739FB00DA11D621F839FA00D611D221FB0
:10348000749F3327A00D611D231F849F600D211D94
:10349000822F762F6A2F11249F5750409AF0F1F017
:1034A00088234AF0EE0FFF1FBB1F661F771F881F80
:1034B00091505040A9F79E3F510580F00C94B219ED
:1034C0000C94FD195F3FE4F3983ED4F3869577950D
:1034D0006795B795F795E7959F5FC1F7FE2B880F26
:1034E000911D9695879597F908950E948E19880BDE
:1034F000990B0895991B79E004C0991F961708F05D
:10350000961B881F7A95C9F780950895AA1BBB1B47
:1035100051E107C0AA1FBB1FA617B70710F0A61BD3
:10352000B70B881F991F5A95A9F780959095BC01F4
:10353000CD01089597FB072E16F4009407D077FD70
:1035400009D00E94861A07FC05D03EF4909581951B
:103550009F4F0895709561957F4F0895EE0FFF1F5F
:103560000590F491E02D09940F931F93CF93DF936F
:103570008230910510F482E090E0E0915404F091E3
:10358000550430E020E0B0E0A0E0309799F4211538
:10359000310509F44AC0281B390B24303105D8F510
:1035A0008A819B816115710589F1FB019383828377
:1035B000FE0111C0408151810281138148175907D2
:1035C000E0F04817590799F4109761F012960C93A0
:1035D000129713961C933296CF01DF91CF911F91D2
:1035E0000F9108950093540410935504F4CF2115BE
:1035F000310551F04217530738F0A901DB019A0158
:10360000BD01DF01F801C1CFEF01F9CF909355045F
:1036100080935404CDCFFE01E20FF31F8193919369
:103620002250310939832883D7CF20915204309119
:103630005304232B41F420910F013091100130935A
:1036400053042093520420910D0130910E01211555
:10365000310541F42DB73EB740911101509112014F
:10366000241B350BE0915204F0915304E217F30749
:10367000A0F42E1B3F0B2817390778F0AC014E5FE2
:103680005F4F2417350748F04E0F5F1F50935304C8
:1036900040935204819391939FCFF0E0E0E09CCF60
:1036A000CF93DF930097E9F0FC01329713821282E7
:1036B000A0915404B0915504ED0130E020E0109742
:1036C000A1F420813181820F931F20915204309107
:1036D00053042817390709F061C0F0935304E093AD
:1036E0005204DF91CF910895EA01CE17DF07E8F584
:1036F0004A815B819E0141155105B1F7E901FB83C8
:10370000EA8349915991C40FD51FEC17FD0761F465
:10371000808191810296840F951FE90199838883A6
:10372000828193819B838A83F0E0E0E012968D9101
:103730009C9113970097B9F52D913C911197CD016C
:103740000296820F931F2091520430915304281740
:10375000390739F6309751F51092550410925404F8
:10376000B0935304A0935204BCCFD383C28340814F
:103770005181840F951FC817D90761F44E5F5F4FC1
:1037800088819981480F591F518340838A819B8189
:10379000938382832115310509F0B0CFF09355044E
:1037A000E09354049ECFFD01DC01C0CF138212824E
:1037B000D7CFDC0101C06D9341505040E0F7089530
:1037C000FB01DC018D91019080190110D9F3990B57
:0637D0000895F894FFCFFC
:1037D600FFFFFFFFFFFFFFFFFFFFFFFFFF0000569A
:1037E6000480003F065B4F666D7D077F6F777C39EF
:1037F6005E797100000000C6012601530133028480
:1038060001620176010D0A006E616E00696E660046
:103816006F7666002C0050494E470052455345547A
:1038260000445200494E56414C49445F4449474979
:1038360054414C5F50494E00415200494E56414C4E
:1038460049445F414E414C4F475F50494E004457F3
:1038560000505700494E56414C49445F50574D5F02
:1038660050494E00535600494E56414C49445F5309
:103876004552564F5F50494E00544E00494E5641F0
:103886004C49445F42555A5A45525F50494E004989
:103896004E56414C49445F4652455155454E435953
:1038A60000544F4E455F51554555455F46554C4C66
:1038B600004E54004E5000494E56414C49445F4E0E
:1038C600454F504958454C5F50494E004E430053B2
:1038D6004700494E56414C49445F5345474D454E76
:1038E600545F50494E00534300444800494E5641E8
:1038F6004C49445F4448545F50494E004448545F25
:10390600524541445F4641494C454400554E4B4E55
:0C3916004F574E5F434F4D4D414E440053
:00000001FF
