:100000000C94CF000C94F7000C94F7000C94F700BC
:100010000C94F7000C94F7000C94F7000C94640F08
:100020000C94F7000C94F7000C94F7000C946210F9
:100030000C94F7000C94F7000C94F7000C94F70064
:100040000C9418100C94F7000C94E60F0C94C00F4D
:100050000C94F7000C94F7000C94F7000C94F70044
:100060000C941E110C94F7004E414E494E495459C0
:10007000494E46CDCCCC3D0AD7233C17B7D1387773
:10008000CC2B329595E6241FB14F0A000020410089
:1000900000C84200401C4620BCBE4CCA1B0E5AAED3
:1000A000C59D747D002C22627574746F6E32223A85
:1000B000002C22627574746F6E31223A002C22700B
:1000C0006972223A002C22706F74656E74696F6DCC
:1000D00065746572223A002C226C69676874223A52
:1000E000002C2274656D7065726174757265223AB8
:1000F000002C22736F756E64223A002C22676173A4
:10010000223A00226D61676E65746963223A006C61
:100110006F63616C646174613B7B006964656E74DC
:100120006966793B7B22646576696365223A227051
:100130006C6179636F64696E67626F787631227D76
:100140000000000000240027002A00000000002515
:100150000028002B000000000023002600290004D6
:10016000040404040404040202020202020303035E
:100170000303030102040810204080010204081058
:100180002001020408102000000008000201000005
:100190000304070000000000000000023D121124CB
:1001A0001FBECFEFD8E0DEBFCDBF11E0A0E0B1E0D1
:1001B000EEEEF3E302C005900D92A03CB107D9F733
:1001C00024E0A0ECB1E001C01D92A63AB207E1F72D
:1001D00010E0CFECD0E004C02197FE010E94A119ED
:1001E000CE3CD107C9F70E94AC120C94F5190C94BF
:1001F0000000CF92DF92EF92FF92DC01A03282E00A
:10020000B807D4F5A53BB10514F0A4EBB0E04091DC
:10021000A00428E830E0241B310947FD3395220F64
:10022000331F220F331F6901330FEE08FF0840917F
:10023000A10428E532E0241B310947FD3395220F44
:10024000331F220F331F032E000C440B550B2C19A8
:100250003D094E095F09B7FF02C0B0E0A0E00E946F
:10026000A11824EB30E040E050E00E947718C20E65
:10027000D31EE41EF51ED601E0919F04EC3080F5FC
:100280002091A00488E890E0821B910927FD9395B6
:10029000880F991F880F991FA817B90784F020911C
:1002A000A10488E592E0821B910927FD9395880FB0
:1002B000991F880F991FA817B9070CF4CD01029751
:1002C000880F991F4FB7F8942E2F30E0F901EE0FE9
:1002D000FF1FE20FF31FE658FB4F928381834FBF4E
:1002E000FF90EF90DF90CF90089508950895AF921A
:1002F000BF92CF92DF92EF92FF920F931F93CF9313
:10030000DF936C017B018B01040F151FEB015E0174
:10031000AE18BF08C017D10759F06991D601ED9109
:10032000FC910190F081E02DC6010995892B79F7A8
:10033000C501DF91CF911F910F91FF90EF90DF905A
:10034000CF90BF90AF900895FC01538D448D252F21
:1003500030E0842F90E0821B930B541710F0CF965F
:10036000089501970895FC01918D828D981761F091
:10037000A28DAE0FBF2FB11D5D968C91928D9F5FA8
:100380009F73928F90E008958FEF9FEF0895FC0187
:10039000918D828D981731F0828DE80FF11D858D3A
:1003A00090E008958FEF9FEF0895FC01918D228DCD
:1003B000892F90E0805C9F4F821B91098F73992752
:1003C000089581ED93E00E94D50121E0892B09F485
:1003D00020E0822F089580E090E0892B29F00E9490
:1003E000E10181110C9400000895FC01A48DA80F77
:1003F000B92FB11DA35ABF4F2C91848D90E0019667
:100400008F739927848FA689B7892C93A089B18986
:100410008C91837080648C93938D848D981306C027
:100420000288F389E02D80818F7D80830895EF928B
:10043000FF920F931F93CF93DF93EC0181E0888F9E
:100440009B8D8C8D98131AC0E889F989808185FF6E
:1004500015C09FB7F894EE89FF896083E889F98910
:1004600080818370806480839FBF81E090E0DF9112
:10047000CF911F910F91FF90EF900895F62E0B8D65
:1004800010E00F5F1F4F0F731127E02E8C8D8E1120
:100490000CC00FB607FCFACFE889F989808185FF87
:1004A000F5CFCE010E94F501F1CFEB8DEC0FFD2FC2
:1004B000F11DE35AFF4FF0829FB7F8940B8FEA8942
:1004C000FB8980818062CFCF0F931F93CF93DF93FF
:1004D0008C01D0E0C0E0F801EC0FFD1F64916623B1
:1004E00041F081ED93E00E941702892B11F02196D3
:1004F000F2CFCE01DF91CF911F910F910895CF934D
:10050000DF93EC01888D8823B9F0AA89BB89E8893B
:10051000F9898C9185FD03C0808186FD0DC00FB6E1
:1005200007FCF7CF8C9185FFF2CF808185FFEDCF5F
:10053000CE010E94F501E9CFDF91CF91089583307C
:1005400081F028F4813099F08230A9F00895873045
:10055000A9F08830C9F08430B1F4809180008F7D9B
:1005600003C0809180008F7780938000089584B5C8
:100570008F7784BD089584B58F7DFBCF8091B000C7
:100580008F778093B00008958091B0008F7DF9CF70
:10059000CF93DF93282F30E0F901E957FE4F849184
:1005A000F901ED58FE4FD491F901E15AFE4FC49183
:1005B000CC23A1F081110E949F02EC2FF0E0EE0FFE
:1005C000FF1FEB5AFE4FA591B491EC91ED2381E012
:1005D00090E009F480E0DF91CF91089580E090E011
:1005E000FACF1F93CF93DF93282F30E0F901E9571B
:1005F000FE4F8491F901ED58FE4FD491F901E15A73
:10060000FE4FC491CC23A9F0162F81110E949F02A6
:10061000EC2FF0E0EE0FFF1FE55BFE4FA591B491CC
:100620008FB7F894EC91111108C0D095DE23DC93BC
:100630008FBFDF91CF911F910895DE2BF8CF90915E
:10064000000189130BC0EBE9F1E0E4919FEF909377
:100650000001E13049F028F0E23061F060E00C94F4
:10066000F10210926E00FACF90916F009D7F9093EF
:100670006F00F4CF909170009D7F9093700091E097
:100680009093B0009091B100987F94609093B100E6
:100690001092B300E3CFCF93DF9390E0FC01ED58CD
:1006A000FE4F2491815A9E4FFC0184918823C9F00A
:1006B00090E0880F991FFC01EF5BFE4FA591B4916C
:1006C000FC01E55BFE4FC591D49161110DC09FB750
:1006D000F8948C91209582238C93888128232883F9
:1006E0009FBFDF91CF910895623051F49FB7F89486
:1006F0003C91822F809583238C93E8812E2BEFCF22
:100700008FB7F894EC912E2B2C938FBFEACF1F93C9
:10071000CF93DF93182FEB0161E00E944B032097EA
:1007200039F460E0812FDF91CF911F910C94F10299
:10073000CF3FD10511F461E0F5CFE12FF0E0E957AB
:10074000FE4FE491E33031F140F4E130B1F0E230BA
:10075000E1F0C038D1057CF7E4CFE73029F1E8308B
:1007600059F1E430B1F7809180008062809380007D
:10077000D0938B00C0938A0004C084B5806884BD88
:10078000C7BDDF91CF911F91089584B5806284BD6C
:10079000C8BDF7CF80918000806880938000D0939F
:1007A0008900C0938800EDCF8091B000806880936D
:1007B000B000C093B300E5CF8091B0008062809319
:1007C000B000C093B400DDCF8E50806480937C0075
:1007D00080917A00806480937A0080917A0086FD0F
:1007E000FCCF809178009091790008953FB7F894FC
:1007F0008091A6029091A702A091A802B091A902AF
:1008000026B5A89B05C02F3F19F00196A11DB11D6B
:100810003FBFBA2FA92F982F8827BC01CD01620FA7
:10082000711D811D911D42E0660F771F881F991F62
:100830004A95D1F708952FB7F8946091A20270916C
:10084000A3028091A4029091A5022FBF0895209148
:100850007D02260F3327331F21323105ECF420911E
:10086000A703FC0190E080E0243069F082E0089565
:10087000A0917D022191AC01435A5D4FA40FB52F89
:10088000B11D2C930196861798F380917D02680F15
:1008900060937D0280E0089581E008951092A7039F
:1008A00081E08093A6031092810361E082E10E94BF
:1008B000F10261E083E10E94F102E9EBF0E0808166
:1008C0008E7F808380818D7F808388E48093B800D1
:1008D00085E48093BC000895CF93DF9391E09093DB
:1008E0005C028823B9F0C091B800D091BA00809121
:1008F000BC008A7B8093BC0060E082E10E94F10230
:1009000060E083E10E94F1020E944E04D093BA009D
:10091000C093B800DF91CF910895CF92DF92EF920C
:10092000FF920F931F93CF93DF93D091D00381E079
:10093000D13208F09CC0C091CF030E94F6036B0136
:100940007C018091A70381116CC082E08093A70392
:1009500081E08093A6038FEF8093A5031092A403F8
:10096000D093A303AFEAB3E0E3E8F3E080E0D81369
:100970008DC01092820380918203CC0FC82BC0934C
:10098000820380918103813009F084C01092810339
:100990000E94F6036B017C01809182038093BB006F
:1009A0008091A9039091AA03A091AB03B091AC03ED
:1009B000892B8A2B8B2BA1F00E94F6030091A903AF
:1009C0001091AA032091AB033091AC036C197D09FF
:1009D0008E099F09061717072807390708F442C030
:1009E0008091BC0083FDD8CF85EC8093BC000E9431
:1009F000F6036B017C018091A703823009F44CC09F
:100A00008091A5038F3F09F469C08091A5038032CE
:100A100009F466C08091A503803309F463C084E0C3
:100A200026C08091A9039091AA03A091AB03B09135
:100A3000AC03892B8A2B8B2B09F483CF0E94F603FE
:100A40000091A9031091AA032091AB033091AC034C
:100A50006C197D098E099F090617170728073907A2
:100A600008F06FCF8091A8030E946C0485E010927B
:100A7000AE031092D0031092AD03DF91CF911F917E
:100A80000F91FF90EF90DF90CF9008959D919193FB
:100A90008F5F6DCF85EEA9CF8091A9039091AA03B6
:100AA000A091AB03B091AC03892B8A2B8B2B09F45B
:100AB000A2CF0E94F6030091A9031091AA032091EE
:100AC000AB033091AC036C197D098E099F090617A1
:100AD00017072807390708F08ECFC4CF80E0C7CFAB
:100AE00082E0C5CF83E0C3CF0895E091B602809144
:100AF000B502E81730F4F0E0E45CFD4F808190E04F
:100B000008958FEF9FEF08959091B6028091B502FE
:100B10002FEF3FEF981748F4E92FF0E0E45CFD4F2A
:100B2000208130E09F5F9093B602C90108958091C3
:100B3000B5029091B602891B990B0895CF92DF926E
:100B4000EF92FF920F931F93CF93DF937C01CB0122
:100B50008A012091AD03222389F0EB016B01C40EC1
:100B6000D51ECC15DD0569F06991D701ED91FC9199
:100B70000190F081E02DC7010995F3CF642F0E9409
:100B80002704C801DF91CF911F910F91FF90EF9043
:100B9000DF90CF900895CF93DF931F92CDB7DEB74C
:100BA00069832091AD032223F9F02091D0032032F4
:100BB00058F021E030E0FC013383228390E080E0B4
:100BC0000F90DF91CF9108958091AE03E82FF0E070
:100BD000E155FC4F998190838F5F8093AE038093A2
:100BE000D00381E090E0ECCF61E0CE0101960E945D
:100BF0002704F7CF90E080E008954F925F926F92C4
:100C00007F928F929F92AF92BF92CF92DF92EF929C
:100C1000FF92CF938091BF02811144C0C0913B02EB
:100C2000CC2309F43FC00E941B04C090B702D090AF
:100C3000B802E090B902F090BA026C197D098E09F1
:100C40009F0997FD2FC08091CA0196E0899FF0010E
:100C50001124E652FE4FC080D18082809380A48010
:100C6000B58090E001968F7099278093CA01C1509A
:100C7000C0933B0280910001843011F18F3F09F451
:100C800085C081E08093BF020E941B04860E971EE0
:100C9000A81EB91E8092BB029092BC02A092BD0217
:100CA000B092BE02CF91FF90EF90DF90CF90BF90B7
:100CB000AF909F908F907F906F905F904F9008952E
:100CC000EBE9F1E0C491C7FDDCCF61E084E00E9474
:100CD0004B03CC2319F0C23009F053C1F12CE12CA5
:100CE00060E072E18AE790E0A70196010E94771820
:100CF00029013A01DA01C9010197A109B1098F3F20
:100D00009105A105B10509F00CF41FC160E472E47E
:100D10008FE090E0A70196010E94771821503109D9
:100D200041095109C23009F0A0C082E02F3F3105CE
:100D30004105510509F00CF4D9C060E970ED83E07C
:100D400090E0A70196010E947718215031094109CE
:100D5000510983E02F3F31054105510509F00CF49D
:100D6000C5C068E478EE81E090E0A70196010E949A
:100D7000771821503109410951092F3F31054105AB
:100D8000510511F00CF0C1C084E0B0C084E0809344
:100D90000001EBE9F1E0C491CF3F09F472CFC1301B
:100DA00021F150F0C23009F43EC0C7FD6ACF61E0C6
:100DB00084E00E944B038FCF14BC15BC84B58260C5
:100DC00084BD85B5816085BDE3E6F1E0E491F0E0A6
:100DD000EE0FFF1FE55BFE4F85919491E7E7F1E091
:100DE000E491E093C101C0E070CF109280001092B6
:100DF00081008091810088608093810080918100D2
:100E0000816080938100E3E6F1E0E491F0E0EE0F91
:100E1000FF1FE55BFE4F85919491E7E7F1E0E491D8
:100E2000E093C00152CF1092B0001092B1008091B7
:100E3000B00082608093B0008091B10081608093A7
:100E4000B100E3E6F1E0E491F0E0EE0FFF1FE55BB7
:100E5000FE4F859194919093AB028093AA02E7E7AD
:100E6000F1E0E491E093AC0230CF2F3F3105410532
:100E7000510509F00CF483C068E478EE81E090E05D
:100E8000A70196010E9477182150310941095109A3
:100E9000CC2309F4E0C02F3F31054105510509F08D
:100EA0000CF472CF62E17AE780E090E0A70196014E
:100EB0000E9477182150310941095109CC2309F4C6
:100EC000B3C086E02F3F31054105510579F070F040
:100ED0009AE075946794579447949A95D1F7A30133
:100EE0009201215031094109510987E09091B100E7
:100EF000987F892B8093B100C13009F46DC0C23056
:100F000009F47FC0C111BDCE28C064E274EF80E057
:100F100090E0A70196010E947718215031094109FC
:100F2000510985E02F3F310541055105F9F2F0F2F5
:100F300062E17AE780E090E0A70196010E947718CD
:100F40002150310941095109BCCF9C0181E0C111F7
:100F5000CDCF95B5987F892B85BD27BD8FEF9FEFAE
:100F6000DC018093C6019093C701A093C801B093A0
:100F7000C90180916E00826080936E0082CE82E013
:100F8000E6CFF12CE12C60E072E18AE790E0A70166
:100F900096010E947718215031094109510991E0C9
:100FA0002115310581E0480751056CF068E478EEC1
:100FB00081E090E0A70196010E9477182150310945
:100FC0004109510993E0C13009F096CF8091810029
:100FD000887F892B8093810030938900209388003B
:100FE0008FEF9FEFDC018093C2019093C301A09328
:100FF000C401B093C50180916F00826080936F003F
:1010000040CE2093B3008FEF9FEFDC018093AD02C1
:101010009093AE02A093AF02B093B00280917000A3
:101020008260809370002DCE84E02F3F3105410512
:10103000510509F008F48DCF8AE0759467945794B0
:1010400047948A95D1F7A3019201215031094109B2
:10105000510985E07ECF83E02F3F310541055105E1
:1010600009F00CF476CF1ECF84E00E941F0310928B
:10107000BF021092BB021092BC021092BD021092ED
:10108000BE021092B7021092B8021092B9021092EA
:10109000BA021092CA0110923A0210923B020895CD
:1010A000882351F08091D8019091D901009721F0C7
:1010B0002091D701211108C060E08AE00E94F1026E
:1010C00060E08BE00C94F102019711F461E0F5CF40
:1010D00060E08AE00E94F10261E0F3CFCF92DF92FC
:1010E000EF92FF92CF938091D8019091D901892BF3
:1010F00021F0C091D701C11102C080E040C00E9420
:10110000F6036B017C018091D3019091D401A091F1
:10111000D501B091D601A7019601281B390B4A0BC6
:101120005B0BDA01C901803D9740A105B10540F094
:10113000C092D301D092D401E092D501F092D601B1
:101140002C2F30E0A0EDB7E00E94E0182FEF30E048
:1011500040E050E00E9455188091D3019091D40155
:10116000A091D501B091D601C81AD90AEA0AFB0AA2
:1011700081E0C216D306E406F50608F0BECFCF9193
:10118000FF90EF90DF90CF900C945008CF93DF93B7
:1011900081E08093AD0380E78093CF031092AE038C
:1011A0001092D00360E08EE694E00E94CB05CBEC79
:1011B000D1E069918EE694E00E94CB0560E08EE676
:1011C00094E00E94CB0581E0C33DD80791F7DF9101
:1011D000CF910C948D0491E09093AD0390E79093A0
:1011E000CF031092AE031092D003682F8EE694E0E6
:1011F0000E94CB050C948D040097A1F0FC01DB014B
:1012000021919D91222381F0992361F08FEB820F30
:101210008A3108F4205E8FEB890F8A3108F4905EE2
:10122000291771F380E003C081E09111FBCF08958D
:10123000FC0101900020E9F73197AF01481B590BE1
:10124000BC0181ED93E00C9477018F929F92AF9255
:10125000BF920F931F93CF93DF93CDB7DEB7A197C4
:101260000FB6F894DEBF0FBECDBF19A2423008F40E
:101270004AE08E010F5D1F4F842E912CB12CA12CC2
:10128000A50194010E945518E62FB901CA01EA3060
:10129000F4F4E05DD801EE938D01232B242B252B54
:1012A00079F790E080E0109719F0CD010E941809BD
:1012B000A1960FB6F894DEBF0FBECDBFDF91CF91E0
:1012C0001F910F91BF90AF909F908F900895E95C10
:1012D000E1CFCF92DF92EF92FF92CF93DF936C0139
:1012E000990FEE08FF08F7FE19C06DE281ED93E05B
:1012F0000E941702EC0166277727CB016C197D0944
:101300008E099F094AE00E9425098C0F9D1FDF91DD
:10131000CF91FF90EF90DF90CF9008954AE0C70102
:10132000B601DF91CF91FF90EF90DF90CF900C94BA
:10133000250985ED8093BC008091A9039091AA03B3
:10134000A091AB03B091AC030796A11DB11D23E0A2
:10135000B695A795979587952A95D1F72091BC00CA
:1013600024FD03C01092A70308954091A903509152
:10137000AA036091AB037091AC03452B462B472B1E
:1013800069F30097A105B10541F02AE22A95F1F72A
:1013900000C00197A109B109E1CF8091A8030C9485
:1013A0006C040F931F93CF93DF93EC018C010F5FBD
:1013B0001F4F8881803231F097EF980F923010F0F4
:1013C0008D3069F4FE0101900020E9F73197AF01FB
:1013D0004C1B5D0BB801CE010E94A719EACFFE019C
:1013E00001900020E9F73197CE17DF0759F082917D
:1013F000803231F097EF980F923010F08D3011F469
:101400001082F2CFDF91CF911F910F910895009735
:1014100011F00C94D1090895EBECF1E088E0DF01C4
:101420001D928A95E9F70C94C60860E087E00E9457
:10143000F10260E088E00E94F10270E060E086E086
:101440000E94870370E060E085E00E94870370E0FF
:1014500060E083E00E9487031092D9011092D801C6
:101460001092D70180E00E9450080E94340890E05A
:1014700080E00E94F9000C940C0A2F923F924F9248
:101480005F926F927F928F929F92AF92BF92CF9214
:10149000DF92EF92FF920F931F93CF93DF9300D0D1
:1014A00000D0CDB7DEB79A8389836BE370E00E94EA
:1014B000B91900E311E0009719F0FC0111928F01B6
:1014C00089819A810E94070AC8010E94070A65E281
:1014D00071E089819A810E94FC088823F1F08BE1F8
:1014E00091E00E9464028EE291E00F900F900F90C5
:1014F0000F90DF91CF911F910F91FF90EF90DF90B0
:10150000CF90BF90AF909F908F907F906F905F90A3
:101510004F903F902F900C94180961E371E08981FE
:101520009A810E94FC08882309F441C18EE00E9440
:10153000E403EE24E394F12C8115924014F0F12C95
:10154000E12C8FE00E94E4035C010E941B042B014C
:101550003C01912C812C2FEF33E03A8329830E94A8
:101560001B046419750986099709643171058105A1
:10157000910578F480E10E94E40349815A8184173F
:10158000950714F49A8389838816990644F74C01C9
:10159000E6CF69817A81861A970A81E10E94E40385
:1015A000BC01990F880B990B0E9428172AE038E29A
:1015B00040EA5BE30E94871720E030E048EC52E409
:1015C0000E9487172B013C0184E10E94E4036C0117
:1015D00085E10E94E4032FEF33E0F901E81BF90BEA
:1015E000FA83E98382E00E94C80201E010E00197DB
:1015F00011F010E000E08CE00E94C80221E030E031
:101600003C832B83892B11F01C821B828DE00E946E
:10161000C80222242394312C892B11F0312C212C47
:101620008FE091E00E94640283E091E00E946402F6
:10163000C7010E9469098BEF90E00E946402C50116
:101640000E94690981EF90E00E946402C4010E9437
:10165000690981EE90E00E946402A3019201C30136
:10166000B2010E949019882361F18BE391E00E94FE
:10167000180987ED90E00E946402C6010E94690982
:1016800085EC90E00E94640289819A810E94690938
:101690008DEB90E00E946402C8010E94690981EB11
:1016A00090E00E9464028B819C810E94690985EA16
:1016B00090E00E946402C1010E94690983EA90E0FF
:1016C00010CF53014201E894B7F82FEF3FEF4FE7F7
:1016D0005FE7C501B4010E94901981110DC02FEF81
:1016E0003FEF4FE75FE7C501B4010E9421171816CD
:1016F0001CF48FE391E0BBCF2FEF3FEF4FE75FE4A8
:10170000C301B2010E948B1918161CF483E491E006
:10171000AECF2FEF3FEF4FE75FECC301B2010E9466
:10172000211787FDF3CF20E030E0A901C301B2010A
:101730000E94211787FF09C06DE281ED93E00E94AE
:10174000170277FA709477F870942DEC3CEC4CE427
:101750005DE3C301B2010E94F0184B015C010E94DD
:101760005C192B013C010E9426179B01AC01C501AD
:10177000B4010E94EF184B015C014AE0C301B201C1
:101780000E9425096EE281ED93E00E94170220E09D
:1017900030E040E251E4C501B4010E9487170E9485
:1017A0005C1990E080E04AE00E94250962CF67E47E
:1017B00071E089819A810E94FC088823C1F00F9012
:1017C0000F900F900F90DF91CF911F910F91FF908D
:1017D000EF90DF90CF90BF90AF909F908F907F90D1
:1017E0006F905F904F903F902F900C94150A6DE48E
:1017F00071E089819A810E94FC08882309F451C014
:1018000061E571E0C8010E9482159A83898361E5D0
:1018100071E090E080E00E9482158C0149815A813C
:101820004115510509F439C3892B09F436C3CA019E
:101830000E94070AC8010E94070A63E571E0C80117
:101840000E94FC08182F66E571E089819A810E9448
:10185000FC088823D1F0612F87E00F900F900F9044
:101860000F90DF91CF911F910F91FF90EF90DF903C
:10187000CF90BF90AF909F908F907F906F905F9030
:101880004F903F902F900C94F1026AE571E08981AE
:101890009A810E94FC08882309F4FFC2612F88E026
:1018A000DCCF60E671E089819A810E94FC08882380
:1018B00009F46BC061E571E0C8010E9482159A834A
:1018C000898361E571E090E080E00E9482158C01DF
:1018D00061E571E090E080E00E94821569817A8183
:1018E000672B09F4DAC20115110509F4D6C2009775
:1018F00009F4D3C20E945B157C01C8010E945B15EC
:101900008C0189819A810E945B158F3F910519F0A6
:1019100014F08FEF90E097FF02C090E080E0BC01F0
:1019200086E00E948703B8010F3F110519F014F0FB
:101930006FEF70E077FF02C070E060E085E00E942A
:101940008703B7016F3F710519F014F06FEF70E076
:1019500077FF02C070E060E083E00F900F900F907F
:101960000F90DF91CF911F910F91FF90EF90DF903B
:10197000CF90BF90AF909F908F907F906F905F902F
:101980004F903F902F900C94870364E671E089811B
:101990009A810E94FC08882321F1C8010E945B15EE
:1019A000853B910514F084EB90E097FF02C090E036
:1019B00080E00F900F900F900F90DF91CF911F91CB
:1019C0000F91FF90EF90DF90CF90BF90AF909F90DE
:1019D0008F907F906F905F904F903F902F900C94DE
:1019E000F9006AE671E089819A810E94FC088823E7
:1019F00009F4A9C061E571E0C8010E9482158C015B
:101A000061E571E090E080E00E9482159A8389830D
:101A10000115110509F441C2892B09F43EC2C80120
:101A20000E945B15B82E092F89819A810E94571553
:101A30006B017C0120E030E0A9010E9421171816FB
:101A4000C4F00F900F900F900F90DF91CF911F91E6
:101A50000F91FF90EF90DF90CF90BF90AF909F904D
:101A60008F907F906F905F904F903F902F900C944D
:101A7000340810913B02103108F04DC0E0913A0259
:101A80008E2F90E09A83898396E0E99FF0011124DC
:101A9000E652FE4F8B2D902F813127E2920714F0F2
:101AA00080E197E28F31910514F48FE190E091830A
:101AB000808320E030E04AEF53E4C701B6010E9482
:101AC00087170E945C19362F272F46E069817A819B
:101AD000469FF001479FF00D1124E652FE4F432F21
:101AE000522FBC01443151056105710520F444E1D8
:101AF00050E060E070E042835383648375838981A2
:101B00009A8101968F7099279A83898380933A02EC
:101B10001F5F10933B020F900F900F900F90DF917B
:101B2000CF911F910F91FF90EF90DF90CF90BF90DA
:101B3000AF909F908F907F906F905F904F903F906D
:101B40002F900C94FD056FE671E089819A810E94C7
:101B5000FC08811176CF69E771E089819A810E9442
:101B6000FC08882309F493C061E571E0C8010E9474
:101B700082159A83898361E571E090E080E00E949C
:101B800082158C01E981FA81309709F486C1CF0171
:101B90000E94070A0115110509F44CC0C8010E94F2
:101BA000070AC8010E945B158C016DE771E089810D
:101BB0009A810E94FC08882309F43FC081E090E0EC
:101BC0009093D9018093D801C8010739110514F009
:101BD00086E990E097FF02C090E080E09C012150F0
:101BE00031092133310510F482E390E08093D7016D
:101BF0000E94F6036093D3017093D4018093D501C2
:101C00009093D6010F900F900F900F90DF91CF918E
:101C10001F910F91FF90EF90DF90CF90BF90AF900A
:101C20009F908F907F906F905F904F903F902F90FC
:101C30000C946E0802E310E0B8CF65E871E089818A
:101C40009A810E94FC08882319F082E090E0B8CFC6
:101C50001092D9011092D8011092D70180E00F9014
:101C60000F900F900F90DF91CF911F910F91FF90E8
:101C7000EF90DF90CF90BF90AF909F908F907F902C
:101C80006F905F904F903F902F900C9450086DE8AC
:101C900071E089819A810E94FC08882379F161E5CD
:101CA00071E0C8010E9482159A83898361E571E021
:101CB00090E080E00E94821529813A81232B09F46B
:101CC000ECC0009709F4E9C00E945B158C01898182
:101CD0009A810E945B151092D9011092D80110923E
:101CE000D70161E0892B09F460E08AE00E94F102EB
:101CF00061E0012B09F460E08BE0AFCD65E971E0B4
:101D000089819A810E94FC08882309F448C061E512
:101D100071E0C8010E9482158C014BEC51E05A839E
:101D2000498388E0F82E0115110521F5E981FA8132
:101D30001082FA9429813A812F5F3F4F3A83298399
:101D4000F110F1CF0F900F900F900F90DF91CF9186
:101D50001F910F91FF90EF90DF90CF90BF90AF90C9
:101D60009F908F907F906F905F904F903F902F90BB
:101D70000C94C608C8010E94070A40E150E070E0D8
:101D800060E0C8010E946C14E981FA81608361E51A
:101D900071E090E080E00E9482158C01CACF6CE96E
:101DA00071E089819A810E94FC08882309F455C05A
:101DB00061E571E0C8010E9482157C0161E571E076
:101DC00090E080E00E9482156C0161E571E090E096
:101DD00080E00E9482159A838983E114F10409F45A
:101DE0005CC0C114D10409F458C0009709F455C06F
:101DF00063E571E00E94FC08182F811108C08981F9
:101E00009A810E945B1511E0019709F010E0C6016C
:101E10000E945B159A838983C7010E945B158830F5
:101E20009105D8F549815A8148305105B0F521E036
:101E300030E001C0220F8A95EAF745535E4F5A837E
:101E40004983FA018081112319F0282B20837ACF4E
:101E500020952823E981FA81F9CF69EA71E0898127
:101E60009A810E94FC088823C1F00F900F900F9078
:101E70000F90DF91CF911F910F91FF90EF90DF9026
:101E8000CF90BF90AF909F908F907F906F905F901A
:101E90004F903F902F900C940C0A0F900F900F9042
:101EA0000F90DF91CF911F910F91FF90EF90DF90F6
:101EB000CF90BF90AF909F908F907F906F905F90EA
:101EC0004F903F902F9008951F920F920FB60F9250
:101ED00011242F933F934F935F936F937F938F932F
:101EE0009F93AF93BF93EF93FF938091AD02909137
:101EF000AE02A091AF02B091B002892B8A2B8B2B3E
:101F0000D1F19091AC02E091AA02F091AB028081F4
:101F1000892780838091AD029091AE02A091AF029B
:101F2000B091B002181619061A061B069CF480918F
:101F3000AD029091AE02A091AF02B091B0020197B4
:101F4000A109B1098093AD029093AE02A093AF02B4
:101F5000B093B002FF91EF91BF91AF919F918F919C
:101F60007F916F915F914F913F912F910F900FBE95
:101F70000F901F901895809100010E941F03EACFD7
:101F80001F920F920FB60F9211242F933F934F93EE
:101F90005F936F937F938F939F93AF93BF93EF93D1
:101FA000FF9381ED93E00E94F501FF91EF91BF91C6
:101FB000AF919F918F917F916F915F914F913F91E1
:101FC0002F910F900FBE0F901F9018951F920F9298
:101FD0000FB60F9211242F938F939F93EF93FF933C
:101FE000E091E103F091E2038081E091E703F09159
:101FF000E80382FD1BC090818091EA038F5F8F739D
:102000002091EB03821741F0E091EA03F0E0EF52F8
:10201000FC4F958F8093EA03FF91EF919F918F91F1
:102020002F910F900FBE0F901F9018958081F4CFC5
:102030001F920F920FB60F9211242F933F938F93FD
:102040009F93AF93BF938091A2029091A302A0911E
:10205000A402B091A5023091A10223E0230F2D37F5
:1020600058F50196A11DB11D2093A1028093A202F3
:102070009093A302A093A402B093A5028091A6021C
:102080009091A702A091A802B091A9020196A11D6A
:10209000B11D8093A6029093A702A093A802B093CB
:1020A000A902BF91AF919F918F913F912F910F9076
:1020B0000FBE0F901F90189526E8230F0296A11DC2
:1020C000B11DD2CF1F920F920FB60F9211242F93F2
:1020D0003F934F935F936F937F938F939F93AF93B0
:1020E000BF93CF93DF93EF93FF938091A002C091B2
:1020F0009E04D0E087FF24C01092850010928400D7
:102100008091A0028F5F8093A0028091A002082E90
:10211000000C990B8C179D0724F48091A0028C3041
:10212000C4F18091840090918500049680349C498C
:1021300008F47AC08091840090918500049676C05E
:102140008091A002082E000C990B8C179D07C4F6F5
:10215000E091A0028E2FEE0F990BFC01EE0FFF1FF6
:10216000E80FF91FE658FB4F808186FFC9CFE09149
:10217000A0028E2FEE0F990BFC01EE0FFF1FE80F50
:10218000F91FE658FB4F808160E08F730E94F102D7
:10219000B7CF2091840030918500E091A0028E2F6E
:1021A000EE0F990BFC01EE0FFF1FE80FF91FE65829
:1021B000FB4F81819281820F931F909389008093BE
:1021C0008800E091A0028E2FEE0F990BFC01EE0F1C
:1021D000FF1FE80FF91FE658FB4F808186FF11C0F3
:1021E000E091A0028E2FEE0F990BFC01EE0FFF1F66
:1021F000E80FF91FE658FB4F808161E08F730E9462
:10220000F102FF91EF91DF91CF91BF91AF919F913B
:102210008F917F916F915F914F913F912F910F908F
:102220000FBE0F901F90189580E49CE99093890051
:10223000809388008FEF8093A002E3CF1F920F92CC
:102240000FB60F9211242F933F934F935F936F9389
:102250007F938F939F93AF93BF93EF93FF9380915F
:10226000B900887F803609F44AC0F0F5883209F455
:10227000A7C018F5803109F49BC0B8F4882309F48D
:10228000F9C0883009F494C0FF91EF91BF91AF91EC
:102290009F918F917F916F915F914F913F912F917E
:1022A0000F900FBE0F901F901895883109F488C0C9
:1022B000803251F78093A50314C0803409F49DC087
:1022C00040F48033B9F38833F9F68093A50385ECA5
:1022D000B0C0803509F485C0883509F496C08834CB
:1022E00099F60E949909D0CF883909F48CC038F545
:1022F000883729F050F4883611F0803729F683E0CA
:102300008093A70310929F0257C0883809F47BC0BE
:10231000803919F0803809F0B7CF80919F02803260
:1023200008F071C0E0919F0281E08E0F80939F02C0
:102330008091BB00F0E0E158FD4F80833DC0803BC1
:1023400039F0E0F4803A09F479C0883A09F09CCF7A
:1023500084E08093A70310927E0210927D02E091A8
:10236000B302F091B402099580917D0281110FC0F2
:1023700081E080937D0210925D0209C0803C09F4E7
:10238000A6CF883C09F4A3CF883B09F07DCFE0912C
:102390007E0281E08E0F80937E02F0E0E35AFD4FD3
:1023A00080818093BB0090917E0280917D0229C044
:1023B000809182038093BB0085EC8093BC0064CF46
:1023C0009091A4038091A303981758F5E091A4037A
:1023D00081E08E0F8093A403F0E0ED57FC4F8081E5
:1023E000E9CFE091A40381E08E0F8093A403809154
:1023F000BB00F0E0ED57FC4F80839091A4038091E7
:10240000A3039817C8F285E8D8CFE091A40381E030
:102410008E0F8093A4038091BB00F0E0ED57FC4F3A
:1024200080838091A60381115CCF81E0809381033A
:1024300084EA8093BC001092A70326CF85EC80939A
:10244000BC001092A70380919F02803230F4E0918B
:102450009F02F0E0E158FD4F108260919F0270E012
:10246000E091B102F091B2028FE792E009951092EB
:102470009F020ACF1092A50334CF1092D40310927A
:10248000D30388EE93E0A0E0B0E08093D50390936F
:10249000D603A093D703B093D80325E031E030935F
:1024A000D2032093D10325EC30E03093DE03209358
:1024B000DD0324EC30E03093E0032093DF0320ECD5
:1024C00030E03093E2032093E10321EC30E03093DD
:1024D000E4032093E30322EC30E03093E6032093FF
:1024E000E50326EC30E03093E8032093E7031092F5
:1024F000EA031092EB031092EC031092ED0310929A
:102500007104109270048093720490937304A093EA
:102510007404B093750487E191E090936F04809305
:102520006E0480919E048C3098F491E0980F909303
:102530009E0480939F0490E0FC01EE0FFF1FE80FC4
:10254000F91FE658FB4F88EB9BE092838183089547
:102550008FEF80939F040895789484B5826084BD42
:1025600084B5816084BD85B5826085BD85B5816097
:1025700085BD80916E00816080936E001092810015
:1025800080918100826080938100809181008160D0
:102590008093810080918000816080938000809191
:1025A000B10084608093B1008091B000816080931D
:1025B000B00080917A00846080937A0080917A00E4
:1025C000826080937A0080917A00816080937A00A3
:1025D00080917A00806880937A001092C10060E058
:1025E00082E00E944B0361E086E00E944B0361E0C1
:1025F00085E00E944B0361E083E00E944B0361E0B1
:1026000084E00E944B0361E087E00E944B0361E09D
:1026100088E00E944B0361E08AE00E944B0361E086
:102620008BE00E944B0362E08CE00E944B0362E06F
:102630008DE00E944B03E091E103F091E20382E020
:102640008083E091DD03F091DE031082E091DF03EF
:10265000F091E00380E180831092E903E091E503CB
:10266000F091E60386E08083E091E303F091E403D8
:10267000808180618083E091E303F091E4038081B5
:1026800088608083E091E303F091E40380818068B7
:102690008083E091E303F091E40380818F7D808368
:1026A00080919F048C3008F051C061E089E00E9465
:1026B0004B0380919F04282F30E0F901EE0FFF1F9C
:1026C000E20FF31FE658FB4F9081907C9960908356
:1026D0001092A0041092A1042CE0622F0E94951980
:1026E000829FB001112430E020E0AB01420F531F64
:1026F000FA01EE0FFF1FE40FF51FE658FB4F908124
:1027000096FD16C02F5F3F4F2C30310571F78111B8
:102710000FC01092800082E08093810010928500AB
:1027200010928400B19A80916F00826080936F0054
:10273000E0919F048E2F90E0FC01EE0FFF1FE80F49
:10274000F91FE658FB4F8081806480831092B602A7
:102750001092B5021092AE031092D0030E944E0464
:1027600085E791E09093B4028093B30286E791E00D
:102770009093B2028093B10281E20E94EB0881E85B
:102780000E94EB088FEE0E94EB080E940C0A0E9448
:10279000150A00E010E08091BF02882359F10E94E1
:1027A0001B04C090BB02D090BC02E090BD02F09030
:1027B000BE026C197D098E099F0997FD1BC084E03C
:1027C0000E941F031092BF021092BB021092BC0223
:1027D0001092BD021092BE020E941B04625E7F4FE7
:1027E0008F4F9F4F6093B7027093B8028093B902E6
:1027F0009093BA020E94FD050E946E0881ED93E05D
:102800000E94D501181619060CF05AC00E946E08D5
:1028100081ED93E00E94B3018A3009F041C0E0915C
:102820008003F0E0E054FD4F108280EC92E00E94C3
:10283000D10946E050E066EB71E080EC92E00E9446
:10284000C419892BF1F4C6ECD2E08881882329F1E0
:102850006DEB71E0CE010E94D2197C01009711F05E
:10286000FC011082CE010E94070A8881882319F09A
:10287000CE010E943D0AE114F10479F0E7012296AD
:10288000E4CF80EC92E00E94D1098091C0028823BD
:1028900021F080EC92E00E943D0A10928003AECFBE
:1028A0008D3009F4ABCFE0918003EF3BB0F791E0BE
:1028B0009E0F90938003F0E0E054FD4F80839ECF05
:1028C0000115110509F467CF0E94E101882309F47D
:1028D00062CF0E9400005FCFB0E0A0E0E2E7F4E149
:1028E0000C94AA185C016B017A016115710519F04D
:1028F000FB0191838083E114F10449F0C701029741
:10290000839728F060E070E0CB019CC05E01E50198
:102910002196F5011081812F90E00E947915892B75
:10292000A9F71D3209F056C02196F501118101E089
:10293000E114F10409F4AEC0F0E1EF16F10409F07E
:102940008EC0103341F488818F7D883509F083C0B3
:10295000198122960260E0E1EE2EF12C88248A94FF
:10296000982CA82CFFE0BF2E20E060E070E0CB01A7
:1029700027010F2C000C66087708FE0150ED352E5C
:10298000310E39E0331538F43FEB310F3A31A0F511
:1029900049EC342E310E3E141F04BCF52F3FB9F024
:1029A00086169706A806B90670F1A30192010E9447
:1029B0004518232D30E050E040E0620F731F841F64
:1029C000951F6217730784079507E8F021E02196A9
:1029D0001081D3CF1B3221F4E5012296F50111813C
:1029E00000E0A6CF78E0E72EF12C88248A94982C7A
:1029F000A82C6FE1B62EB8CF3FE9310F3A3128F459
:102A000039EA332EC7CF2FEFE2CFC114D10431F012
:102A10002223E9F02197F601D183C08300FF07C08C
:102A200090958095709561957F4F8F4F9F4F2F3F69
:102A300049F482E290E09093A5048093A4046FEFA0
:102A40007FEFCB01CDB7DEB7E1E10C94C61801FFF3
:102A5000E5CF2297E0CF10E3E114F10419F23AE058
:102A6000E316F104E9F080E1E816F10409F473CF0C
:102A7000E8E0EE16F10409F4B8CF6FEF7FEFCB0179
:102A800097010F2C000C440B550B0E94551849015F
:102A90005A016ACF103309F456CF9AE0E92EF12C8F
:102AA00089E9882E982CA82C89E1B82E5DCF66275D
:102AB00077270C94B615FC0188279927E894219173
:102AC0002032E9F3293010F02E30C8F32B3241F0D8
:102AD0002D3239F4689404C00E94AE15820F911D06
:102AE000219120532A30C0F31EF4909581959F4F79
:102AF000089591110C940617803219F08950855071
:102B0000C8F7089542EA54E00E9487150895FA0133
:102B1000A191B081009719F41097E1F0CD01DC018B
:102B2000CD010D90002011F4C00113C0FB012191D3
:102B3000222319F02015D9F7F3CFFB01219120159D
:102B400019F41E92119606C02223C1F70D900020A1
:102B5000A1F7D001FA01A193B08308957AE0979F7D
:102B6000902D879F802D910D11240895B0E0A0E055
:102B7000ECEBF5E10C94AF185C017B01611571057C
:102B800019F0DB018D939C9385010F5F1F4FF501B9
:102B9000D0818D2F90E00E9479156C01892BB9F5B9
:102BA000DD32B9F50F5F1F4FD5011196DC91C1E001
:102BB0005801F1E0AF1AB10843E050E060E770E07F
:102BC000C5010E940917892B69F5680182E0C80ECA
:102BD000D11C45E050E06BE670E0C6010E94091789
:102BE000892B21F4680197E0C90ED11CE114F1048E
:102BF00019F0D701CD92DC9260E070E080E89FEFA1
:102C0000C111FFC060E070E080E89FE7FAC05801A2
:102C1000BBCFDB3229F485010E5F1F4FF501D18157
:102C2000C0E0C6CF43E050E068E670E0C5010E9416
:102C30000917892BE9F0F80110E000E020E030E00E
:102C4000A9015F01B0ED8B2E8D0E89E08815C8F1CA
:102C50009C2E689491F88C2F8870C2FF16C0811149
:102C600002C00F5F1F4F3196D501DC91C92DE9CF0E
:102C7000E114F10429F00E5F1F4FF7011183008367
:102C800060E070E080EC9FE7BCC0882311F0015049
:102C90001109A5E0B0E00E9496189B01AC01220F3B
:102CA000331F441F551F280D311D411D511D28394B
:102CB00099E93907490799E15907A8F2C6609C2E9E
:102CC000D2CFAEEF8A1206C0C3FD3CC09C2E6894E2
:102CD00093F8C9CFDF7DD534A9F580818D3239F4E1
:102CE000C061DF011296818162E070E006C0DF0101
:102CF0008B32C1F3119661E070E080535D01A61A3A
:102D0000B70A8A30F8F4E0E8CE16ECE0DE065CF4B0
:102D1000B601660F771F660F771FC60ED71ECC0C45
:102D2000DD1CC80ED11C5D01FFEFAF1ABF0A8C91EC
:102D300080538A30A8F1C4FF03C0D194C194D10854
:102D40000C0D1D1DC1FF09C0E114F10431F081E03B
:102D5000A81AB108D701AD92BC92CA01B9010E946C
:102D60002617C370C33009F490584B015C0120E072
:102D700030E0A9010E942117882309F440C0CFE95F
:102D8000D0E017FF05C0119501951109C7E8D0E003
:102D90006E01B8E1CB1AD10880E2E82EF12C0FC009
:102DA000D501B1CFFE0125913591459154910E1970
:102DB0001F09C501B4010E9487174B015C01D501B1
:102DC000C4010E151F0574F72497F594E794CC16EB
:102DD000DD06A9F78A2F880F8B2F881F8F3F49F0B8
:102DE00020E030E0A901C501B4010E942117811142
:102DF00006C082E290E09093A5048093A404C501EC
:102E0000B401CDB7DEB7ECE00C94CB189927882736
:102E10000895FB01DC014150504088F08D918134D0
:102E20001CF08B350CF4805E659161341CF06B35C1
:102E30000CF4605E861B611171F3990B0895881B79
:102E4000FCCF0E94631708F481E00895E89409C05C
:102E500097FB3EF490958095709561957F4F8F4FCD
:102E60009F4F9923A9F0F92F96E9BB279395F695E3
:102E7000879577956795B795F111F8CFFAF4BB0F61
:102E800011F460FF1BC06F5F7F4F8F4F9F4F16C0C5
:102E9000882311F096E911C0772321F09EE8872F4F
:102EA000762F05C0662371F096E8862F70E060E00B
:102EB0002AF09A95660F771F881FDAF7880F969584
:102EC000879597F90895990F0008550FAA0BE0E828
:102ED000FEEF16161706E807F907C0F012161306DC
:102EE000E407F50798F0621B730B840B950B39F41C
:102EF0000A2661F0232B242B252B21F408950A2682
:102F000009F4A140A6958FEF811D811D08950E94AF
:102F10009A170C940B180E94FD1738F00E940418A1
:102F200020F0952311F00C94F4170C94FA17112447
:102F30000C943F180E941C1870F3959FC1F3950FD5
:102F400050E0551F629FF001729FBB27F00DB11D2D
:102F5000639FAA27F00DB11DAA1F649F6627B00DBD
:102F6000A11D661F829F2227B00DA11D621F739FA6
:102F7000B00DA11D621F839FA00D611D221F749FB4
:102F80003327A00D611D231F849F600D211D822FFB
:102F9000762F6A2F11249F5750409AF0F1F0882322
:102FA0004AF0EE0FFF1FBB1F661F771F881F91504F
:102FB0005040A9F79E3F510580F00C94F4170C94F3
:102FC0003F185F3FE4F3983ED4F386957795679575
:102FD000B795F795E7959F5FC1F7FE2B880F911D79
:102FE0009695879597F9089597F99F6780E870E01F
:102FF00060E008959FEF80EC089500240A9416166F
:10300000170618060906089500240A9412161306D6
:10301000140605060895092E0394000C11F4882364
:1030200052F0BB0F40F4BF2B11F460FF04C06F5F80
:103030007F4F8F4F9F4F089557FD9058440F551F56
:1030400059F05F3F71F04795880F97FB991F61F02A
:103050009F3F79F087950895121613061406551FA1
:10306000F2CF4695F1DF08C0161617061806991F0D
:10307000F1CF86957105610508940895E894BB2702
:1030800066277727CB0197F90895DB018F939F93EC
:103090000E949618BF91AF91A29F800D911DA39F92
:1030A000900DB29F900D11240895A1E21A2EAA1B33
:1030B000BB1BFD010DC0AA1FBB1FEE1FFF1FA217E8
:1030C000B307E407F50720F0A21BB30BE40BF50BE5
:1030D000661F771F881F991F1A9469F7609570956E
:1030E000809590959B01AC01BD01CF010895052EFF
:1030F00097FB1EF400940E948E1857FD07D00E9483
:10310000551807FC03D04EF40C948E18509540953A
:10311000309521953F4F4F4F5F4F08959095809583
:10312000709561957F4F8F4F9F4F08950E94E018D3
:10313000A59F900DB49F900DA49F800D911D11240B
:103140000895B7FF0C9496180E949618821B930B53
:1031500008952F923F924F925F926F927F928F923B
:103160009F92AF92BF92CF92DF92EF92FF920F9316
:103170001F93CF93DF93CDB7DEB7CA1BDB0B0FB620
:10318000F894DEBF0FBECDBF09942A8839884888DD
:103190005F846E847D848C849B84AA84B984C88473
:1031A000DF80EE80FD800C811B81AA81B981CE0F6A
:1031B000D11D0FB6F894DEBF0FBECDBFED0108954F
:1031C000A29FB001B39FC001A39F700D811D112468
:1031D000911DB29F700D811D1124911D08955058AD
:1031E000BB27AA270E9407190C940B180E94FD17F1
:1031F00038F00E94041820F039F49F3F19F426F4A7
:103200000C94FA170EF4E095E7FB0C94F417E92FF1
:103210000E941C1858F3BA176207730784079507B2
:1032200020F079F4A6F50C943E180EF4E0950B2EE0
:10323000BA2FA02D0B01B90190010C01CA01A00108
:103240001124FF27591B99F0593F50F4503E68F163
:103250001A16F040A22F232F342F4427585FF3CFA4
:10326000469537952795A795F0405395C9F77EF475
:103270001F16BA0B620B730B840BBAF09150A1F0BE
:10328000FF0FBB1F661F771F881FC2F70EC0BA0F44
:10329000621F731F841F48F4879577956795B795CC
:1032A000F7959E3F08F0B0CF9395880F08F09927C7
:1032B000EE0F9795879508950E94241888F09F57E0
:1032C00098F0B92F9927B751B0F0E1F0660F771F4A
:1032D000881F991F1AF0BA95C9F714C0B13091F040
:1032E0000E943E18B1E008950C943E18672F782F85
:1032F0008827B85F39F0B93FCCF386957795679505
:10330000B395D9F73EF490958095709561957F4F70
:103310008F4F9F4F08950E94631708F48FEF089511
:103320000E946317880B990B0895991B79E004C0DC
:10333000991F961708F0961B881F7A95C9F78095F4
:103340000895EE0FFF1F0590F491E02D0994681782
:10335000790768F4FB01DC01E40FF51FA40FB51F2A
:1033600002C002900E9241505040D8F708950C943C
:10337000EC19FC018191861721F08823D9F7992750
:1033800008953197CF010895FB01DC014150504071
:1033900030F08D910190801919F40020B9F7881B45
:1033A000990B0895FB0151915523A9F0BF01DC0150
:1033B0004D9145174111E1F759F4CD0101900020DD
:1033C00049F04D9140154111C9F3FB014111EFCF77
:1033D00081E090E001970895FB01DC0102C00190BB
:0E33E0000D9241505040D8F70895F894FFCF59
:1033EE00FF0000000017027701A4017F02D501B390
:1033FE0001C70100000000CB059E05FA0574059774
:10340E0005840575056964656E74696679000D0A33
:10341E00006C6F63616C64617461006E616E006953
:10342E006E66006F7666007265736574006C656417
:10343E00002C006F6E0072656400677265656E0029
:10344E0072676200736572766F00746F6E650074DA
:10345E006F6E655F73746F700066616E00666F727B
:10346E007761726400726576657273650066616E6F
:10347E005F726177006D6174726978006D6174724C
:10348E0069785F706978656C006D61747269785FD8
:10349E00636C6561720062617463683B004040005A
:00000001FF
